:107000008091000190910101D3D7282F04B603FE8F
:1070100018C08091E4029091E50282549C4D89F45D
:10702000213079F484B7877F84BF1092E5021092F3
:10703000E40288E18093600010926000E0E0F0E0FC
:10704000099511E0A0E0B1E0ECEDFFE702C005908A
:107050000D92A031B107D9F712E0A0E1B1E001C073
:107060001D92A43EB107E1F7CDB7DEB7A697DEBF0C
:10707000CDBF112485E08093810082E08093C00021
:1070800088E18093C10086E08093C20080E1809314
:10709000C40088E288D1259A86E020E33CEF91E0A5
:1070A000309385002093840096BBB09BFECF1D9A41
:1070B000A8958150A9F7CE01019660EE73E041E0FA
:1070C00050E066D78981813071F580E191E061EE11
:1070D00073E04CE050E05CD783E291E06DEE73E04A
:1070E00041E050E055D780912301809325018E0126
:1070F0000E5F1F4FC8016EEE73E043E050E048D7CB
:1071000080EE92E061EF73E042E050E041D782EE22
:1071100092E063EF73E042E050E03AD780E191E023
:107120008FD4C8018BD35AD185E0A82EB12CAC0ED8
:10713000BD1E06E0C02ED12CCC0EDD1E10E9E12EC6
:1071400011E0F12E01E01091C6008981813009F033
:1071500075C080E191E0B5018ED3882309F469C040
:107160008F818538B1F1863848F4833809F458C0E6
:10717000843830F5813809F05CC00FC08A3869F175
:107180008B3820F4863809F054C04AC08C3809F492
:1071900034C08D3809F04DC026C08A858093230104
:1071A0008885833009F045C08985882309F438C073
:1071B00088EC90E0F7013197F1F70197D9F739C0E2
:1071C00088858E3009F035C08985882309F031C063
:1071D00027C0A895809123010DC0A895888590911E
:1071E0002501890F07C0A8958985823911F1809101
:1071F00025018F5F809325011CC0A89598858A8101
:10720000981719F08C819817A1F480913D0188237B
:1072100011F400933D0180E191E0B6014ED109C027
:107220006091E2027091E3028091E0029091E102AC
:10723000CBD380913D01882309F08BCF103309F027
:1072400082CFB7D0D8D0EE24FF2499249394B5E010
:10725000BB2EA1E1AA2EF3E0CF2E99D0813461F4A8
:1072600096D0182FA6D0123811F1113819F485E0F4
:1072700086D082C083E0FCCF823411F484E103C065
:10728000853419F485E09DD077C0853561F47FD0D1
:10729000082F10E07CD090E0F82EEE24E02AF12AAE
:1072A000EE0CFF1C68C0863521F484E08AD080E0B3
:1072B000DFCF843609F042C06AD069D0D82E67D0BB
:1072C00080E0E81680E7F80618F4F701C7BEE895F5
:1072D00000E011E05CD0F80181938F01DE16D1F758
:1072E000F0E0EF16F0E7FF0618F0F701C7BEE895EB
:1072F00060D007B600FCFDCFA701A0E0B1E02C9163
:1073000030E011968C91119790E0982F8827822B6E
:10731000932B1296FA010C0197BEE89511244E5F4B
:107320005F4FF1E0A038BF0751F7F701B7BEE8950E
:1073300007B600FCFDCFA7BEE8951EC0843761F4F8
:1073400026D025D0182F23D034D0F70185917F0186
:1073500016D01150D1F710C0853739F42AD08EE1FC
:107360000ED085E90CD08FE083CF813519F488E009
:107370001AD001C03AD01DD080E101D06ECF982F35
:107380008091C00085FFFCCF9093C6000895809146
:10739000C00087FFFCCF8091C00084FD01C0A8958C
:1073A0008091C6000895E0E6F0E098E19083808344
:1073B0000895EDDF803219F088E0F5DFFFCF84E13A
:1073C000DECF1F93182FE3DF1150E9F7F2DF1F9193
:1073D00008951092E5021092E402089582E49CED73
:1073E0009093E5028093E4020895809100019091CA
:1073F000010161E0E5C5809100019091010160E02B
:10740000DFC5CF93DF93EC01DB0183E0FE0187BF93
:10741000E89507B600FCFDCF40E050E091E08C918C
:1074200011962C91119730E0322F2227280F311D11
:107430001296FA01EC0FFD1F090197BFE895112480
:107440004E5F5F4F4038510551F785E0FE0187BF21
:10745000E89507B600FCFDCF81E187BFE895DF9195
:10746000CF9108951F93CF93DF93EC01162F809156
:107470003E0190913F016091D001ECD18823B9F099
:10748000E0913E01F0913F018589882381F0809150
:10749000D001BE01412F36D2982F882349F0E091C8
:1074A0003E01F0913F0185898150858B01C090E0BC
:1074B000892FDF91CF911F910895DF92EF92FF9274
:1074C0000F931F93DF93CF93CDB7DEB7AB970FB674
:1074D000F894DEBF0FBECDBFAC018B0190933F018E
:1074E00080933E01FB0192818091CF019817F1F0CA
:1074F0008091D101981709F093C18381853009F4F7
:107500004FC1863050F4833009F415C1843008F03F
:107510001AC1823009F084C107C1883009F46FC1F3
:10752000843121F0863009F07BC15EC18091020177
:10753000833009F455C0843009F459C0813009F012
:107540006FC12091D001322F377081E090E001C0EF
:10755000880F3A95EAF7269526952695FA01E20FC7
:10756000F11D248D282B248F809524A1822384A3B0
:10757000F801268130E040E050E0522F44273327C5
:107580002227858190E0A0E0B0E0DC0199278827E0
:10759000282B392B4A2B5B2B838190E0A0E0B0E0B5
:1075A000282B392B4A2B5B2B848190E0A0E0B0E0A4
:1075B000BA2FA92F982F8827282B392B4A2B5B2BE2
:1075C0002093400130934101409342015093430185
:1075D00083E091E063E046DF8823D1F382E00CC1D1
:1075E00086E091E063E03EDF8823D1F319C1F80122
:1075F000D080FEEFDF0E209144013091450121152E
:10760000310599F18091460190914701019790933E
:10761000470180934601892B41F530934701209320
:107620004601209148013091490140914A01509111
:107630004B0181E18C831D822E83BB27A52F942FC4
:10764000832F8F83CA01AA27BB278887252F33273B
:10765000442755272987F4E0EF2EF12CEC0EFD1E70
:10766000C70166E0FFDE8823D9F3FF2425C090918F
:10767000CE01E92FF0E0E25BFE4FD801AF0DB11D66
:1076800013968C9180839F5F9093CE01903899F4EC
:107690001092CE0180914C0190914D016EE471E009
:1076A000B0DE80914C0190914D0180589F4F909396
:1076B0004D0180934C01F394FD14C8F28091480170
:1076C00090914901A0914A01B0914B018D0D911DFE
:1076D000A11DB11D8093480190934901A0934A01D7
:1076E000B0934B0120914001309141014091420102
:1076F00050914301281739074A075B0709F090C0EA
:1077000080914C0190914D01019690934D01809391
:107710004C0101976EE471E074DE89E091E063E072
:10772000A1DE8823D1F37CC080910201823009F070
:1077300077C083E061C0809102018250823008F4FA
:107740005ADE84E059C080910201843009F068C09B
:10775000DE011196ECE0F1E083E001900D928150A2
:10776000E1F7209148013091490140914A0150913F
:107770004B018091400190914101A0914201B09153
:107780004301281739074A075B0741F48E010F5F51
:107790001F4FC80163E066DE8823D9F385E02CC063
:1077A00080910201853009F03BC01FDE80913E01CF
:1077B00090913F0161E0DDD0EAE0EE2EF12CEC0E7D
:1077C000FD1E80913E0190913F01B70154D0882366
:1077D000C1F3F80181818638A1F788E180936000C8
:1077E00088E080936000FFCF80913E0190913F013F
:1077F0000DD18823C9F381E08093020111C0FB0100
:10780000258130E0322F2227848190E0282B392BEC
:107810003093450120934401309347012093460162
:10782000AB960FB6F894DEBF0FBECDBFCF91DF9100
:107830001F910F91FF90EF90DF90089521E020932A
:107840000201AFECB1E0FC0183E001900D928150A8
:10785000E1F70895262F269526952695FC01E20F3F
:10786000F11D848D90E0677002C0959587956A95AB
:10787000E2F7817008950F931F93CF93DF938C01EC
:10788000EB01CB01D3D1282F8823B1F18A8188382D
:1078900029F0893821F1863879F513C0D8015C9632
:1078A000FE01339688E001900D928150E1F7D801F6
:1078B0009496FE013B9688E001900D928150E1F78D
:1078C0001BC0F8017C9680E0108210868F5F319695
:1078D0008830D1F7F80114A68389858B0DC08B8180
:1078E0009C81F801978B868B8D819E81918F808FF3
:1078F0008F819885938F828F822FDF91CF911F91F7
:107900000F910895CF92DF92EF92FF921F93DF9332
:10791000CF93CDB7DEB7E6970FB6F894DEBF0FBEB4
:10792000CDBF142F8983C42EDD2482E0E82EF12CF4
:10793000EC0EFD1EC701A60122D31E5F1F8B85E141
:10794000888F8981898FCE014A96B701A60117D306
:10795000CE01469654D1E6960FB6F894DEBF0FBE20
:10796000CDBFCF91DF911F91FF90EF90DF90CF902F
:1079700008950F931F93DF93CF93CDB7DEB7A197F1
:107980000FB6F894DEBF0FBECDBF8C0182E08A83B4
:1079900081E18B836C83CE01019631D1882349F03C
:1079A000F8017C9690E0108210869F5F31969830A7
:1079B000D1F7A1960FB6F894DEBF0FBECDBFCF9121
:1079C000DF911F910F910895DF93CF93CDB7DEB76D
:1079D000A1970FB6F894DEBF0FBECDBF25E02A8376
:1079E0002FE02B83292F33272D838C83872F9927F3
:1079F0008F836E83CE01019602D1A1960FB6F894C3
:107A0000DEBF0FBECDBFCF91DF910895DF93CF933F
:107A1000CDB7DEB7A1970FB6F894DEBF0FBECDBFCE
:107A200081E08A838EE08B83CE010196E8D0A19617
:107A30000FB6F894DEBF0FBECDBFCF91DF91089592
:107A4000CF93DF93EC01FC017C9680E010821086DE
:107A50008F5F31968830D1F7CE0199D1A0D088239D
:107A600011F4CE01D3DFDF91CF910895FC01EC57E3
:107A7000FF4F11921082E558F04080E0118212828F
:107A80008F5FB1968430D1F70895FC0120E0DC01CE
:107A9000AB57BF4FEC57FF4F90818C91981709F46B
:107AA00021E0822F0895FC0130E0EB57FF4F8081E9
:107AB00090E00196837090702291281709F431E0CC
:107AC000832F0895DF92EF92FF920F931F93CF932E
:107AD000DF93EC017B01FB01D180E5DF882311F00E
:107AE00080E02BC08E010B571F4FF801808190E082
:107AF000FC0125E0EE0FFF1F2A95E1F7E80FF91FC3
:107B0000EC0FFD1F1082F801808121E2829FC001ED
:107B1000112401964D2D50E04F5F5F4F0894E11CFA
:107B2000F11C8C0F9D1FB7012AD2F801808190E0D3
:107B3000019683709070808381E0DF91CF911F91D7
:107B40000F91FF90EF90DF9008950F931F93CF93C5
:107B5000DF93EC018B0199DF882311F080E01AC0DC
:107B6000CC57DF4F9881C458D04081E2989FF001F4
:107B70001124D801EC0FFD1F01900D928150E1F707
:107B8000FE01EC57FF4F808190E00196837090706A
:107B9000808381E0DF91CF911F910F9108951F9312
:107BA000E091DE02F091DF028281B2D1FC0110810E
:107BB000E091DE02F091DF028281BFD190E01823D4
:107BC00009F491E0892F1F910895EF92FF921F937E
:107BD000E091DE02F091DF02818185D17C01FC0120
:107BE0001081E091DE02F091DF028181A6D18095C3
:107BF0001823F70110831F91FF90EF9008951F93B2
:107C0000FC018181803210F010E00DC082ED91E026
:107C1000BF0158DF182F882331F088E592E043DF59
:107C2000882309F4D2DF812F1F910895CF92DF922C
:107C3000EF92FF921F93DF93CF93CDB7DEB7C2547D
:107C4000D0400FB6F894DEBF0FBECDBF6C0188E503
:107C500092E029DF882309F076C088E592E023DFEF
:107C6000882309F070C09BDF882341F482ED91E006
:107C70000CDF882309F067C0A8DF65C082ED91E0C2
:107C8000BE016F5F7F4F61DF882311F419821A8272
:107C90009CDF5A815EBD0DB407FEFDCF6EB58B81B2
:107CA0008EBD0DB407FEFDCF4EB5552351F0252FE7
:107CB00030E0842F90E0821793071CF4252F215089
:107CC00001C0242F4BA3203208F02FE1DE0194964F
:107CD000FE013496CE01820F911D9C012C5D3F4F19
:107CE00008C080818EBD0DB407FEFDCF8EB58D938B
:107CF0003196A217B307A9F7E091DE02F091DF02F7
:107D000081816AA3F0D07C01FC011081E091DE0248
:107D1000F091DF02818111D1182BF701108388E5E2
:107D200092E0C1DE882331F482ED91E0AEDE88235B
:107D300009F44BDF8BA1882331F088E592E0BE0186
:107D40006E5D7F4FBFDE88E592E0ADDE88E592E0B4
:107D5000B601FBDE882361F088E592E0A4DE88238B
:107D600031F482ED91E091DE882309F42EDF81E089
:107D7000CE5BDF4F0FB6F894DEBF0FBECDBFCF9105
:107D8000DF911F91FF90EF90DF90CF9008954F9279
:107D90005F926F927F928F929F92AF92BF92CF929B
:107DA000DF92EF92FF920F931F938C0182ED91E08F
:107DB0005DDE88E592E05ADE1093DF020093DE027A
:107DC000F80184817BD07C01E091DE02F091DF023A
:107DD000838174D05C01E091DE02F091DF02828148
:107DE0006DD02C01E091DE02F091DF02818166D03E
:107DF0006C01E091DE02F091DF0285815FD04C01E1
:107E0000E091DE02F091DF0282816DD03C01229A86
:107E1000F7011081E091DE02F091DF0284818DD0C4
:107E200080951823F7011083F5011081E091DE029F
:107E3000F091DF02838181D0182BF5011083F601C8
:107E40001081E091DE02F091DF02818176D0182B63
:107E5000F6011083F4011081E091DE02F091DF025F
:107E600085816BD0182BF4011083F2011081E09111
:107E7000DE02F091DF02828160D080951823F2014A
:107E80001083F3011081E091DE02F091DF02828124
:107E900054D0182BF30110838CB581678CBD1F91D2
:107EA0000F91FF90EF90DF90CF90BF90AF909F9099
:107EB0008F907F906F905F904F900895982F8830AB
:107EC00018F48AE290E008958850863018F484E22D
:107ED00090E008959E50963018F080E090E008956C
:107EE00087E290E00895982F883018F48BE290E0B4
:107EF00008958850863018F485E290E008959E50E9
:107F0000963018F080E090E0089588E290E00895BF
:107F1000982F883018F489E290E0089588508630D0
:107F200018F483E290E008959E50963018F080E0B7
:107F300090E0089586E290E00895282F883030F090
:107F40008850863058F430E02850304081E090E08E
:107F500002C0880F991F2A95E2F70895822F8E504C
:107F6000863010F080E0089530E02E50304081E0FF
:107F700090E002C0880F991F2A95E2F70895FB014F
:107F8000DC0102C001900D9241505040D8F7089595
:107F9000DC01CB01FC01F999FECF06C0F2BDE1BDC9
:107FA000F89A319600B40D9241505040B8F70895B8
:107FB000F999FECF92BD81BDF89A992780B50895B1
:107FC000262FF999FECF1FBA92BD81BD20BD0FB6F5
:0C7FD000F894FA9AF99A0FBE01960895F1
:107FDC00DF03FF1001011002011003011004010066
:027FFE0000057C
:040000030000700089
:00000001FF
