:100000000C942D040C9473120C94A0120C94710493
:100010000C9471040C9471040C9471040C9471048C
:100020000C9471040C9471040C9471040C9471047C
:100030000C9471040C9471040C9471040C9471046C
:100040000C94CD120C9471040C94DE150C94611672
:100050000C9471040C9471040C9471040C9471044C
:100060000C9471040C94710443524320646F6573C3
:10007000206E6F74206D6174636820454550524F47
:100080004D2E2057726974696E67206E6577206403
:100090006174612E0053657269616C20696E7075C0
:1000A000742064726F707065640053657269616C6E
:1000B00020696E707574207472756E637465640067
:1000C00053656E64696E673A2000416476657274A8
:1000D0006973696E67207374617274656400485750
:1000E000206572726F723A2000202050697065207E
:1000F0004572726F7220436F64653A203078004118
:100100004349204576742050697065204572726FAE
:10011000723A205069706520233A00002000204484
:100120006174612848657829203A2000506970651B
:10013000204E756D6265723A200041647665727476
:100140006973696E672073746172746564004576C3
:100150007420446973636F6E6E65637465642F41C8
:1001600064766572746973696E672074696D65641D
:10017000206F757400457674206C696E6B20636F18
:100180006E6E656374696F6E20696E7465727661F8
:100190006C206368616E6765640045767420506901
:1001A0007065205374617475730045767420436FD5
:1001B0006E6E65637465640045767420436D6420DB
:1001C000726573706F6E653A205374617475732035
:1001D0000041434920436F6D6D616E6420004164AE
:1001E000766572746973696E672073746172746581
:1001F00064004576742044657669636520537461B4
:10020000727465643A205374616E64627900457655
:100210007420446576696365205374617274656403
:100220003A20536574757000000706000003024110
:10023000FE000000000000000000000000000000C0
:10024000000000000000000000001F061000000079
:10025000000000000D000F0101000006000010006A
:1002600000000000000000000015001F06101C30F8
:10027000020000000000000000000000000000007C
:1002800000001000000018009002FF001F06103848
:10029000FFFF02580A0500000000000040000000B7
:1002A0000010000000000000000100000005061022
:1002B00054000100000000000000000000000000E9
:1002C00000000000000000000000000000001F0609
:1002D00020000404020200012800010018040405A3
:1002E0000500022803010E0300002A041404001F65
:1002F00006201C0300032A0001555254640404051F
:10030000050004280301020500012A060403020077
:100310001F06203800052A0101800004040505009D
:1003200006280301020700042A0604090800072A18
:10033000001F06205404010A00120000000A0004F5
:100340000402020008280001011804040505000940
:1003500028001F0620700301220A00052A26040532
:1003600004000A2A05010000000046140302000BE5
:100370002902001F06208C01000004040202000C68
:100380002800010A1804040505000D280301020EC7
:1003900000272A001F0620A804040901000E2A27AE
:1003A000010A000000000000000004040505000F21
:1003B00028030102001F0620C41000292A04041487
:1003C0000200102A29013031000000000000000066
:1003D0000000000000001F0620E0000000000004F4
:1003E0000405050011280301021200242A04040850
:1003F0000200122A2401001F0620FC3132000000F6
:10040000000000040405050013280301021400265F
:100410002A040404020014001F0621182A260133AE
:1004200034000004040505001528030102160050DD
:100430002A0604080700162A001F0621345001026C
:100440000000AAAACCCC0404101000172800012335
:10045000D1BCEA5F782315DEEF001F06215012128F
:1004600030150000040413130018280301041900B8
:1004700023D1BCEA5F782315DEEF001F06216C1242
:100480001232150000441014000019153202000049
:100490000000000000000000000000001F0621888E
:1004A0000000000000000004041313001A280301D8
:1004B000181B0023D1BCEA5F782315DE001F06213C
:1004C000A4EF12123115000054101400001B153156
:1004D00002000000000000000000000000001F06F5
:1004E00021C0000000000000000046140302001CB0
:1004F000290201000004041010001D280001001F43
:100500000621DC9ECADC240EE5A9E093F3A3B50125
:1005100000406E04041313001E280301041F000092
:100520001F0621F89ECADC240EE5A9E093F3A3B5CB
:100530000200406E44101400001F0002030000007F
:10054000001F062214000000000000000000000050
:100550000000000000000404131300202803011011
:1005600021001F062230009ECADC240EE5A9E0937C
:10057000F3A3B50300406E14001400002100030330
:100580000000001F06224C000000000000000000D8
:1005900000000000000000000046140302002229B1
:1005A000020100001F062268000404131300232820
:1005B00003011424009ECADC240EE5A9E093F3A3F2
:1005C000B5040040001F0622846E54100900002468
:1005D00000040300000000000000000046140302B5
:1005E0000025290201001F0622A0000004041313A5
:1005F00000262803010227009ECADC240EE5A9E09C
:1006000093F3A3B5050000150622BC406E0604074F
:10061000060027000503FFFFFFFFFFFF00000000AB
:1006200000000000000000001F0640002A0001003A
:100630008004000300002A0501000404000A000BE6
:100640002A2701008004000E001F06401C00002A1B
:100650002901008004001000002A24010080040009
:100660001200002A2601008004001F0640380014F2
:1006700000002A500100800400160000153202001C
:1006800008040019000015310204001F064054023E
:1006900004001B001C000203000804001F000000EF
:1006A000030300020400210022000400150640702C
:1006B00003000A040024002500050300800400272D
:1006C000000000000000000000000000001F0650B5
:1006D0000023D1BCEA5F782315DEEF121200000080
:1006E000009ECADC240EE5A9E093F3A3B50007063B
:1006F000501C0000406E00000000000000000000E0
:100700000000000000000000000000000000001FCA
:100710000660000000000000000000000000000073
:1007200000000000000000000000000000000000C9
:100730000E06601C00000000000000000000000029
:1007400000000000000000000000000000000000A9
:10075000001906700019028000000000000000006F
:100760000000000000000000000000000000000089
:1007700000000606F0000353E20000000000000045
:100780000000000000000000000000000000000069
:10079000000050696E733A00536574206C696E6591
:1007A00020656E64696E6720746F206E65776C6972
:1007B0006E6520746F2073656E64206461746120BF
:1007C00066726F6D207468652073657269616C2054
:1007D0006D6F6E69746F720041726475696E6F201F
:1007E00073657475702C20554152542074656D707A
:1007F0006C61746500002C200000000000240027BC
:10080000002A0000000000250028002B0000000046
:100810000023002600290004040404040404040244
:10082000020202020203030303030301020408108D
:10083000204080010204081020010204081020005A
:100840000000070002010000030406000000000091
:1008500000000000B9041416B20411241FBECFEF2B
:10086000D8E0DEBFCDBF84B794B7977F94BF98E13F
:100870000FB6F89490936000109260000FBE83FF53
:100880000EC080910F049091100482549C4D39F455
:100890001092100410920F04E0E0F0E7099511E0C7
:1008A000A0E0B1E0E0E4F8E302C005900D92AE3ABA
:1008B000B107D9F714E0AEEAB1E001C01D92AF3044
:1008C000B107E1F718E0C8E5D8E004C02297FE01BF
:1008D0000E940F1CC435D107C9F70E9487160C94DB
:1008E000131C0C940000FB01DC0102C005900D926A
:1008F00041505040D8F70895FB01DC0102C001903F
:100900000D9241505040D8F70895FB01DC01019051
:100910000D920020E1F70895FB01DC0141505040A9
:1009200048F001900D920020C9F701C01D9241507E
:100930005040E0F708958130910551F46F5F7F4F8B
:1009400081F48EEA91E060E071E00E947D190895E3
:10095000892B39F46F5F7F4F21F48EEA91E00E947A
:10096000AF19089580E090E06FEF7FEF0E949B0445
:10097000089581E090E06FEF7FEF0E949B0408955F
:100980008F929F92AF92BF92CF92DF92EF92FF929F
:100990000F931F93DF93CF93CDB7DEB729970FB691
:1009A000F894DEBF0FBECDBF5C01DE011796EAE909
:1009B000F1E083E001900D928150E1F7FE01329663
:1009C000E4912E2F30E020953095822F90E0A4E026
:1009D00095958795AA95E1F7822793279C01322F59
:1009E00022273295307F28273927C9019070E5E00A
:1009F000880F991FEA95E1F782279327A0E0B0E0DE
:100A0000292F30E0982F8827282B392BF501EA0F62
:100A1000FB1FE4918E2F90E028273927822F90E04A
:100A200054E0959587955A95E1F7822793279C0185
:100A3000322F22273295307F28273927C90190701D
:100A400015E0880F991F1A95E1F7822793271196D1
:100A5000AC30B105A9F6292F30E0982F8827282B34
:100A6000392B83E190E0A80EB91EF5018491EDEEDB
:100A7000FFEFAE0EBF1E90E028273927822F90E0AF
:100A8000E4E095958795EA95E1F7822793279C0105
:100A9000322F22273295307F28273927C9019070BD
:100AA00055E0880F991F5A95E1F78227932707E0B1
:100AB000802E912C8C0E9D1EF401DE011A96292F9A
:100AC00030E0982F8827282B392B849190E0282715
:100AD0003927822F90E074E0959587957A95E1F714
:100AE000822793279C01322F22273295307F282797
:100AF0003927C901907005E0880F991F0A95E1F721
:100B0000822793273196EA17FB07C9F6292F30E091
:100B1000982F8827282B392BFE013496E4918E2FAD
:100B200090E028273927822F90E0B4E095958795AB
:100B3000BA95E1F7822793279C01322F222732951D
:100B4000307F28273927C9019070F5E0880F991F59
:100B5000FA95E1F782279327292F30E0982F8827ED
:100B6000282B392BFE013396E4918E2F90E0282715
:100B70003927822F90E074E0959587957A95E1F773
:100B8000822793279C01322F22273295307F2827F6
:100B90003927C901907005E0880F991F0A95E1F780
:100BA00082279327292F30E0982F8827282B392B4D
:100BB000FE013696E4918E2F90E028273927822F68
:100BC00090E0B4E095958795BA95E1F78227932751
:100BD0009C01322F22273295307F28273927C901DF
:100BE0009070F5E0880F991FFA95E1F78227932717
:100BF000292F30E0982F8827282B392BFE01359696
:100C0000E4918E2F90E028273927822F90E074E01E
:100C1000959587957A95E1F7822793279C01322F46
:100C200022273295307F282739279FEFE92EF12C94
:100C3000E222F32285E0EE0CFF1C8A95E1F7E22622
:100C4000F3264E831D826C831B8281E08A83898315
:100C50008EE192E065E170E00E944B0A082F10E0FF
:100C60008EE192E066E170E00E944B0A382F20E0AE
:100C7000202B312BE216F30611F480E05FC08EE6E4
:100C800093E068E670E00E941D178EE192E060E05C
:100C900070E04A810E94520A650101E010E08EE195
:100CA00092E0B801F60141916F010E94520A0F5F74
:100CB0001F4F0D30110599F78EE192E06DE070E065
:100CC000F50143890E94520A0EE010E08EE192E0A5
:100CD000B801F40141914F010E94520A0F5F1F4F6A
:100CE0000131110599F78EE192E061E170E04C81EC
:100CF0000E94520A8EE192E062E170E04B810E9414
:100D0000520A8EE192E063E170E04E810E94520A45
:100D10008EE192E064E170E04D810E94520A8EE122
:100D200092E065E170E04E2D0E94520A8EE192E061
:100D300066E170E04F2D0E94520A81E029960FB6BD
:100D4000F894DEBF0FBECDBFCF91DF911F910F9101
:100D5000FF90EF90DF90CF90BF90AF909F908F90DB
:100D600008958EE693E061E071E00E94941864E6D5
:100D700070E080E090E00E9450139091CA01809151
:100D8000C801981769F585EB91E068E00E943B1077
:100D9000882331F185EB91E069E00E943B108823C4
:100DA000F9F085EB91E06AE00E943B108823C1F0E6
:100DB0008091B7010E944B14892BD1F782E49CEDFE
:100DC0009093100480930F0428E088E190E00FB620
:100DD000F894A895809360000FBE20936000FFCF29
:100DE00008950F931F9301E00EC08EE693E00E94DA
:100DF0004E15182F8EEA91E0612F0E9437191A3094
:100E000011F40093B4018EE693E00E943215892B11
:100E100061F71F910F910895CF93DF93EC0185EB5C
:100E200091E06DE00E943B10882379F18EE693E01B
:100E3000688140E150E00E9414188881823081F07E
:100E4000833018F4813009F505C08330B1F0843067
:100E5000E1F417C085EB91E061E00E9417110FC02B
:100E6000FE013196628173814481558126813781EB
:100E700089819A810E94A71002C010921C0281E011
:100E800005C081E080931C0201C080E0DF91CF911A
:100E900008950F931F93CF93DF9385EB91E067EF56
:100EA00071E00E944F10882309F4A5C18091F901D7
:100EB000863809F4C9C0873880F4833809F468C1DA
:100EC000843820F4813809F096C11AC0843809F4B6
:100ED00053C0853809F08FC17DC08A3809F42CC110
:100EE0008B3838F4883809F487C0893809F083C111
:100EF0009CC08C3809F4B9C08D3809F07CC122C17E
:100F00008091FC018093C8018091FA01823021F028
:100F1000833009F070C10AC08EE693E06EE072E0A3
:100F20000E941D1781E080931B0265C18EE693E04D
:100F300062EF71E00E941D178091FB01882339F058
:100F400064E170E080E090E00E9450130CC084EBFC
:100F500090E060E570E00E943C118EE693E06EED5B
:100F600071E00E941D1785EB91E064EB70E040E5B5
:100F700050E00E94C0043FC18091FB018823F1F042
:100F80008EE693E061ED71E00E94C0166091FA0177
:100F90008EE693E070E040E150E00E9472188EE629
:100FA00093E068EB71E00E94C0166091FB018EE651
:100FB00093E070E040E150E00E9472188091FA01E5
:100FC000893009F018C185EB91E063E04CEF51E006
:100FD00029E037C08EE693E06AEA71E00E941D17AF
:100FE00081E080931C02109219028091C8018093C5
:100FF000CA010E949E11FFC08EE693E06AE971E08B
:101000000E941D1785EB91E06CE00E943B10882345
:1010100009F4F1C080911902882309F0ECC00E9404
:10102000991081E080931902E6C08EE693E065E7AF
:1010300071E00E941D1785EB91E06FE04AEF51E0EF
:1010400026E00E945D11D7C08EE693E06EE471E069
:101050000E941D1784EB90E060E071E00E943C115B
:101060008EE693E06AE371E0C4C08EE693E06CE242
:1010700071E00E94C0168EE693E06091FA014AE0AA
:1010800050E00E9414188091FA018B3031F08E30BC
:10109000D1F18A3009F0AFC03EC08EE693E06EE138
:1010A00071E00E94C0160BEF11E0C0E0D0E014C068
:1010B0008EE693E0D8016C910E94F516FE01EE5188
:1010C000FE4FD8018D918D0180838EE693E06CE117
:1010D00071E00E94C01621962091F801822F90E0C5
:1010E0000297C817D90724F322502093F6018EE601
:1010F00093E06BE171E00E941D1785EB91E06CE0DD
:101100000E943B1078C06091F80162508BEF91E033
:101110000E940C0770C08091FB01813009F06BC008
:1011200085EB91E069E00E943B10882309F463C0DD
:1011300081E080931A025FC08091FA019091CA0108
:10114000890F23C08EE693E06FEF70E00E94C01617
:101150008EE693E06091FA014AE050E00E940218A6
:101160008EE693E069EE70E00E94C0168EE693E092
:101170006091FB0140E150E00E9414188091FB0156
:101180008239C9F18091CA018F5F8093CA0133C04F
:101190008EE693E06EED70E00E94C0166091FA0159
:1011A0007091FB018EE693E04AE050E00E94E51763
:1011B00010E008C0E950FE4F8EE693E065810E9482
:1011C0008F151F5FE12FF0E08091F80190E002970A
:1011D000E817F9077CF38EE693E00E94FD1684EB96
:1011E00090E060E570E00E943C118EE693E06AECCE
:1011F00070E00E941D1780911B02882341F085EB4F
:1012000091E00E943B0D882311F410921B02809103
:101210001A02882311F00E94B106DF91CF911F912D
:101220000F9108950E9449078091B401882309F421
:1012300043C08EE693E060EC70E00E94C0168EE63C
:1012400093E06EEA71E00E9431178EEA91E062EE5F
:1012500071E044E150E020E030E00E94A718809166
:10126000B2019091B3018531910568F084E18093DA
:10127000F6018AE08093F5018EE693E06AEA70E079
:101280000E941D1702C08093F6018CE062EE71E0AF
:101290004091F6010E94D210882331F48EE693E04B
:1012A00065E970E00E941D178EEA91E060E071E050
:1012B0000E9496191092B40108952F923F924F9276
:1012C0005F926F927F928F929F92AF92BF92CF92D6
:1012D000DF92EF92FF920F931F935EE6E52E53E0AD
:1012E000F52EC70140E052EC61E070E026E00E947C
:1012F000CE14C70168ED77E00E941D17C70168E9A9
:1013000077E00E941D1701EC11E087E691E09093D1
:10131000C2018093C1018FE08093C30188E292E013
:101320009093C5018093C4018AE28093C60144EF83
:10133000C42E4FEFD42EC00ED11EF601108235EF11
:10134000A32E3FEFB32EA00EB11E89E0F5018083DE
:1013500026EF822E2FEF922E800E911E88E0F40150
:10136000808397EF692E9FEF792E600E711E8BE0C0
:10137000F301808388EF482E8FEF582E400E511EC8
:101380008CE0F2018083B9EF2B2EBFEF3B2E200EB5
:10139000311E8DE0F101808385E08093BB01055013
:1013A000104084E0F80180838FEF8093BD0180932B
:1013B000BE011092BF0181E08093C0018AE061E02C
:1013C0000E94B813C60161E00E940D12C70162E9D4
:1013D00077E00E941D17C701F50160814AE050E0E7
:1013E0000E941418C701F40160814AE050E00E9495
:1013F0001418C701F30160814AE050E00E941418FC
:10140000C701F20160814AE050E00E941418C70150
:10141000F10160814AE050E00E941418C701F80110
:1014200060814AE050E00E9414181F910F91FF90D4
:10143000EF90DF90CF90BF90AF909F908F907F9074
:101440006F905F904F903F902F900895EF92FF9292
:101450000F931F938C017B018EE693E067E171E0AF
:101460000E9491188EE693E0B8010E9491188EE6D2
:1014700093E06EE171E00E9491188EE693E0B7016F
:101480004AE050E00E94D4178EE693E061E271E0FA
:101490000E949118FFCFF999FECF72BD61BDF89AF5
:1014A00080B50895F999FECF1FBA72BD61BD40BDE8
:1014B0000FB6F894FA9AF99A0FBE0895882319F492
:1014C0008CB5806202C08CB58F7D8CBD08959CB5B3
:1014D000937F982B9CBD08952CB5382F33702C7FAB
:1014E000322B3CBD2DB590E09595879595958795C8
:1014F00081702E7F822B8DBD08958AE061E00E946D
:10150000F7138AE061E00E94B8138CB580618CBD4E
:101510008CB580648CBD8DE061E00E94B8138BE0D7
:1015200061E00E94B8130895FC0181E0808389E0A6
:1015300081830895FC01DB0185E080838FE0818356
:1015400011968C91119783838C91828313968C9141
:101550001397858312968C9184830895FC01DB0197
:1015600082E0808381E181838C9182830895FC01F4
:1015700081E080838EE081830895FC01DB0189E0B6
:10158000808383E1818311968C91119783838C9161
:10159000828313968C911397858312968C91129760
:1015A000848315968C911597878314968C91149744
:1015B000868317968C911797818716968C918087D2
:1015C0000895FC0181E0808383E181830895DC013B
:1015D0004E5F4C93425085E111968C931197FB011D
:1015E000819112968C9312971396CD01BF0150E012
:1015F0000E947C040895DC014E5F4C9342508DE0C4
:1016000011968C931197FB01819112968C931297EE
:101610001396CD01BF0150E00E947C0408951F93F2
:10162000CF93DF93EC01CB57DF4F1881C558D040E3
:1016300031F483E291E069EA70E00E94260A30E02A
:10164000812F90E0019683709070CC57DF4F2881F6
:10165000281709F431E0832FDF91CF911F9108956E
:10166000CF93DF93EC01009731F483E291E060E9DE
:1016700070E00E94260AF894789430E0CB57DF4F50
:10168000888190E0019683709070FE012291281766
:1016900009F431E0832FDF91CF910895CF93DF9349
:1016A000EC01009731F483E291E066E870E00E947B
:1016B000260A20E0FE01EB57FF4FCC57DF4F988101
:1016C0008081981709F421E0822FDF91CF9108954E
:1016D000CF93DF93EC01009731F483E291E067E769
:1016E00070E00E94260AF894789420E0FE01EB57FF
:1016F000FF4FCC57DF4F98818081981709F421E084
:10170000822FDF91CF910895CF93DF93EC01009763
:1017100031F483E291E062E270E00E94260ACC5745
:10172000DF4F19921882C558D040FE0180E0118227
:1017300012828F5FB1968430D1F7DF91CF910895F7
:101740000F931F93CF93DF93EC018B01009731F43C
:1017500083E291E060EB70E00E94260A011511051A
:1017600031F483E291E061EB70E00E94260ACE0141
:101770000E94680B882311F080E013C0CC57DF4F24
:101780008881FE01E458F04021E2829FC0011124CB
:10179000D801E80FF91F81E201900D928150E1F725
:1017A00081E0DF91CF911F910F910895DF92EF9229
:1017B000FF920F931F93CF93DF93EC017B01FB010B
:1017C000D180009731F483E291E064E670E00E94FA
:1017D000260AE114F10431F483E291E065E670E059
:1017E0000E94260ACE010E940F0B882311F080E090
:1017F0002EC08E010B571F4FF801808190E0FC0135
:1018000025E0EE0FFF1F2A95E1F7E80FF91FEC0F17
:10181000FD1F1082F801208181E2289F9001112490
:101820002F5F3F4F2C0F3D1FED2DF0E03196A701AC
:101830004F5F5F4FC901BA01AF010E947C04F801FC
:10184000808190E0019683709070808381E0DF91C9
:10185000CF911F910F91FF90EF90DF900895DF924D
:10186000EF92FF920F931F93CF93DF93EC017B01D5
:10187000FB01D180009731F483E291E061E570E0F3
:101880000E94260AE114F10431F483E291E062E55A
:1018900070E00E94260ACE010E94300B882311F0CE
:1018A00080E02EC08E010B571F4FF801808190E021
:1018B000FC0135E0EE0FFF1F3A95E1F7E80FF91F45
:1018C000EC0FFD1F1082F801208181E2289F90011A
:1018D00011242F5F3F4F2C0F3D1FED2DF0E031966F
:1018E000A7014F5F5F4FC901BA01AF010E947C049D
:1018F000F801808190E0019683709070808381E090
:10190000DF91CF911F910F91FF90EF90DF9008959D
:101910000F931F93CF93DF93EC018B01009731F46A
:1019200083E291E06FE370E00E94260A0115110541
:1019300031F483E291E060E470E00E94260ACE0177
:101940000E944E0B882311F080E01AC0CC57DF4F65
:101950009881C458D04081E2989FF0011124D801A9
:10196000EC0FFD1F01900D928150E1F7FE01EC5745
:10197000FF4F808190E0019683709070808381E0BA
:10198000DF91CF911F910F9108950F931F93CF93E4
:10199000DF93EC018B01009731F483E291E06FE279
:1019A00070E00E94260A0115110531F483E291E0EE
:1019B00060E370E00E94260ACE010E94680B882333
:1019C00011F080E01AC0CC57DF4F9881C458D04046
:1019D00081E2989FF0011124D801EC0FFD1F0190C6
:1019E0000D928150E1F7FE01EC57FF4F808190E0AE
:1019F000019683709070808381E0DF91CF911F9179
:101A00000F910895EF92FF920F931F93CF93DF935F
:101A10008C01EB01FF2481E2E82E20C0D8011F9643
:101A2000ED91FC9150979E9DC0011124E80FF91F84
:101A300031964491319750E04E5F5F4F8EE293E0D4
:101A4000BF010E9473048EE293E00E94350E88234A
:101A500051F088818F5F8883FF24F3949881F80187
:101A600081899817D8F28F2DDF91CF911F910F9117
:101A7000FF90EF9008959F92AF92BF92CF92DF9226
:101A8000EF92FF920F931F93DF93CF930F92CDB7F7
:101A9000DEB75C0119820E944C10882311F481E0AA
:101AA00049C08EE293E00E949610882311F082E0F4
:101AB00041C0C5018E010F5F1F4FB8010E94020D8A
:101AC000CC24DD247601902E012F0BC08FEFC81699
:101AD0008FEFD8068FE0E80680E0F80610F083E08C
:101AE00029C00894C11CD11CE11CF11C8EE293E0BA
:101AF0000E949610882351F380913003843811F0AE
:101B000085E018C010913203113021F0123051F0ED
:101B100084E010C0C501692D702F0E94020DCC24F5
:101B2000DD247601C5016EE273E00E944F10123091
:101B300069F680E00F90CF91DF911F910F91FF9098
:101B4000EF90DF90CF90BF90AF909F9008958FE17E
:101B500092E00E94680B0895FF920F931F93CF931A
:101B6000DF938C01EB01E0912C03F0912D03818137
:101B700060E00E94F713F80181818EBD0DB407FE6D
:101B8000FDCF8EB58883F80182818EBD0DB407FE2E
:101B9000FDCF5EB55983F8014181442349F0242FDC
:101BA00030E0852F90E08217930714F4542F5150A2
:101BB000F52EFFE1F51710F48FE1F82E4C2FD80128
:101BC000CE01FC010BC013968C9113978EBD0DB402
:101BD00007FEFDCF8EB58283319611968E2F841B22
:101BE0008F1588F3E0912C03F0912D03818161E042
:101BF0000E94F7138F2DF11081E0DF91CF911F919B
:101C00000F91FF9008950F931F93CF93DF93EC01F3
:101C100009818EE693E0602F4AE050E00E940218AE
:101C20008EE693E06FE571E00E94911810E0FE01EE
:101C3000E10FF11D8EE693E0618140E150E00E94EA
:101C400002188EE693E066EF77E00E94C0161F5FF1
:101C5000011768F78EE693E065EF77E00E941D17A5
:101C6000DF91CF911F910F9108951F93CF93DF9331
:101C7000EC018981803210F010E023C08FE192E006
:101C8000BE010E942F0C182F8823D9F085EA92E01C
:101C90000E94300B882341F4E0912C03F0912D0336
:101CA000818160E00E94F71380912B03882349F023
:101CB0008EE693E062E671E00E949118CE010E94E8
:101CC000030E812FDF91CF911F910895E0912C0396
:101CD000F0912D0387818F3F89F161E00E94B81355
:101CE000E0912C03F0912D038081813099F487815C
:101CF00061E00E94F71364E670E080E090E00E94EB
:101D00005013E0912C03F0912D03878160E00E9435
:101D1000F7130895878161E00E94F713E0912C0387
:101D2000F0912D03878160E00E94F713E0912C036E
:101D3000F0912D03878161E00E94F7130895CF93FE
:101D4000DF93EC0160932B0390932D0380932C037E
:101D50000E947D0A80E00E945E0A8E810E946C0AC9
:101D600080E00E94670A8FE192E00E94840B85EA7E
:101D700092E00E94840B8A8162E00E94B8138981FC
:101D800061E00E94B81388858F3F19F060E00E94DF
:101D9000B8130E94660E8C8160E00E94F7138B815D
:101DA00060E00E94F713898161E00E94F7138D8142
:101DB00060E00E94F71361E070E080E090E00E9434
:101DC0005013898161E00E94F71361E070E080E0C8
:101DD00090E00E945013898160E00E94F71361E057
:101DE00070E080E090E00E945013898161E00E94E1
:101DF000F71361E070E080E090E00E945013898169
:101E000060E00E94F7136EE170E080E090E00E94D5
:101E100050138A85882339F08B8566E17FE040E0A6
:101E200050E00E943D12DF91CF910895DF93CF9350
:101E3000CDB7DEB7C254D0400FB6F894DEBF0FBEA8
:101E4000CDBF8FE192E0BE016F5F7F4F0E94880C93
:101E5000882311F419821A82CE010196BE016E5DAB
:101E60007F4F0E94AC0D85EA92E00E940F0B882301
:101E700071F48FE192E00E944E0B882341F4E091CF
:101E80002C03F0912D03818160E00E94F7138BA158
:101E90008823B9F085EA92E0BE016E5D7F4F0E9413
:101EA000D60B882309F4FFCF85EA92E00E940F0B3E
:101EB000882339F0E0912C03F0912D0383850E9453
:101EC0006012CE5BDF4F0FB6F894DEBF0FBECDBF02
:101ED000CF91DF910895DF93CF93CDB7DEB7C25492
:101EE000D0400FB6F894DEBF0FBECDBF85EA92E0BA
:101EF0000E94300B882309F04BC0E0912C03F09135
:101F00002D0382810E944B14019779F48FE192E0B6
:101F10000E94680B8823E1F5E0912C03F0912D03DA
:101F2000818160E00E94F71333C08FE192E0BE012F
:101F30006F5F7F4F0E94C50C882311F419821A82AB
:101F4000CE010196BE016E5D7F4F0E94AC0D85EA09
:101F500092E00E94300B882371F48FE192E00E949E
:101F6000680B882341F4E0912C03F0912D038181CB
:101F700060E00E94F7138BA1882351F085EA92E07C
:101F8000BE016E5D7F4F0E942F0C882309F4FFCFA6
:101F9000CE5BDF4F0FB6F894DEBF0FBECDBFCF9143
:101FA000DF9108951F93CF93DF93EC01E0912C0311
:101FB000F0912D038285882341F485EA92E00E9406
:101FC000300B882311F40E946B0F85EA92E00E9487
:101FD000300B182F85EA92E0BE010E94C50C8823C1
:101FE00091F180912B03882349F08EE693E064E61B
:101FF00071E00E949118CE010E94030E112371F02E
:10200000E0912C03F0912D038285882339F083859C
:1020100066E17FE040E050E00E943D1285EA92E0F8
:102020000E94300B882371F48FE192E00E94680BCC
:10203000882341F4E0912C03F0912D03818160E02D
:102040000E94F71381E0DF91CF911F910895CF9304
:10205000DF93EC01E0912C03F0912D03828588231E
:1020600011F40E946B0F85EA92E0BE010E94A00B62
:10207000DF91CF910895262F269526952695FC0170
:10208000E20FF11D848D90E0677002C095958795F1
:102090006A95E2F7817008950E94A70D08950F9345
:1020A0001F93CF93DF938C01EB01CB010E94D20FE2
:1020B000282F8823A9F18A81883829F0893819F1D5
:1020C000863871F512C0DE01F8017C9690E0139617
:1020D0008C91139780831B968C911B9780879F5FB1
:1020E00011963196983099F71BC0F8017C9680E0E4
:1020F000108210868F5F31968830D1F7F80114A6D0
:102100008389858B0DC08B819C81F801978B868B91
:102110008D819E81918F808F8F819885938F828F03
:10212000822FDF91CF911F910F9108950E94271068
:1021300008950F931F930FE213E0C8010E94E10A74
:10214000C80101970E94350E1F910F9108950F93BA
:102150001F93DF93CF93CDB7DEB728970FB6F894D0
:10216000DEBF0FBECDBF9A8389837C836B835E8382
:102170004D8338872F830FE213E0C801BE016F5FE4
:102180007F4F0E94BD0AC80101970E94350E289614
:102190000FB6F894DEBF0FBECDBFCF91DF911F9178
:1021A0000F9108951F93DF93CF93CDB7DEB7659757
:1021B0000FB6F894DEBF0FBECDBF582F142F282FB7
:1021C00030E0C901880F991F820F931FE0915703D8
:1021D000F0915803E80FF91F339781819281823083
:1021E000910511F00497C1F41531B0F459839E01A3
:1021F0002E5F3F4FC901412F50E00E947C048FE2C7
:1022000093E0BE016F5F7F4F412F0E94E70A8EE28D
:1022100093E00E94350E01C080E065960FB6F894F9
:10222000DEBF0FBECDBFCF91DF911F9108950F93F9
:102230001F93DF93CF930F92CDB7DEB78C016983E5
:102240008FE293E0BE016F5F7F4F0E94AE0A8EE285
:1022500093E00E94350E882349F0F8017C9690E0C7
:10226000108210869F5F31969830D1F70F90CF91F2
:10227000DF911F910F9108950F931F93DF93CF93D9
:1022800000D000D0CDB7DEB79A8389837C836B837F
:102290000FE213E0C801BE016F5F7F4F0E949A0AF0
:1022A000C80101970E94350E0F900F900F900F906C
:1022B000CF91DF911F910F9108951F93DF93CF93DB
:1022C000CDB7DEB765970FB6F894DEBF0FBECDBFB2
:1022D000122F262F30E0C901880F991F820F931FFC
:1022E000E0915703F0915803E80FF91F339780816D
:1022F0008130C9F41531B8F469839E012E5F3F4FD8
:10230000C901BA01412F50E00E947C048FE293E0A2
:10231000BE016F5F7F4F412F0E94FB0A8EE293E068
:102320000E94350E01C080E065960FB6F894DEBFBE
:102330000FBECDBFCF91DF911F9108950F931F93D3
:102340000FE213E0C8010E94940AC80101970E949D
:10235000350E1F910F9108950F931F930FE213E015
:10236000C8010E94B70AC80101970E94350E1F914B
:102370000F910895CF93DF93EC018881813009F0AC
:1023800049C064E670E080E090E00E9450130E9433
:10239000AC11CE016EE273E00E944F108823C9F3A6
:1023A000809130038438A9F780913203833861F437
:1023B00084E080932F0381E88093300382E0809350
:1023C0003103109232030EC0882379F484E08093A5
:1023D0002F0381E88093300383E0809331031092D0
:1023E000320382E0809333030FC0823899F484E093
:1023F00080932F0381E88093300381E08093310341
:10240000109232031092330385EA92E06EE273E099
:102410000E942F0CDF91CF910895CF93DF93EC01B1
:10242000FC017C96AFE4B3E0108210861D923196D9
:1024300083E0A735B807C1F71092590310925D03E6
:1024400010925C0310925A0310925B0310925E0389
:102450008C859D8590935803809357038F85988929
:102460009093600380935F03CE010E949F0ECE0184
:102470000E94BA11DF91CF910895823000F5E82FC4
:10248000F0E0EE0FFF1FEF59FC4F7183608388234C
:1024900019F08130A1F408C0809169008C7F842BF1
:1024A00080936900E89A089580916900440F551F50
:1024B000440F551F837F842B80936900E99A089508
:1024C000823080F4882319F0813021F402C0E8982A
:1024D00001C0E998E82FF0E0EE0FFF1FEF59FC4F25
:1024E0001182108208951F920F920FB60F9211243D
:1024F0002F933F934F935F936F937F938F939F930C
:10250000AF93BF93EF93FF93809161039091620328
:10251000892B29F0E0916103F09162030995FF9105
:10252000EF91BF91AF919F918F917F916F915F914B
:102530004F913F912F910F900FBE0F901F901895C4
:102540001F920F920FB60F9211242F933F934F9328
:102550005F936F937F938F939F93AF93BF93EF930B
:10256000FF938091630390916403892B29F0E0919C
:102570006303F09164030995FF91EF91BF91AF91CF
:102580009F918F917F916F915F914F913F912F918B
:102590000F900FBE0F901F9018951F920F920FB6BD
:1025A0000F9211242F933F938F939F93AF93BF93D9
:1025B0008091690390916A03A0916B03B0916C03C1
:1025C00030916D030196A11DB11D232F2D5F2D3775
:1025D00020F02D570196A11DB11D20936D0380930E
:1025E000690390936A03A0936B03B0936C0380918B
:1025F000650390916603A0916703B091680301960B
:10260000A11DB11D8093650390936603A09367039A
:10261000B0936803BF91AF919F918F913F912F919C
:102620000F900FBE0F901F901895789484B582601C
:1026300084BD84B5816084BD85B5826085BD85B566
:10264000816085BDEEE6F0E0808181608083E1E815
:10265000F0E010828081826080838081816080834D
:10266000E0E8F0E0808181608083E1EBF0E0808150
:1026700084608083E0EBF0E0808181608083EAE722
:10268000F0E08081846080838081826080838081AB
:10269000816080838081806880831092C10008956A
:1026A000EF92FF920F931F93CF93DF937B018C01E7
:1026B0003FB7F8948091650390916603A0916703FA
:1026C000B091680326B5A89B05C02F3F19F001966D
:1026D000A11DB11D3FBFBA2FA92F982F8827820FA8
:1026E000911DA11DB11D52E0880F991FAA1FBB1F8C
:1026F0005A95D1F7EC0130C00E94CB1B3FB7F8943C
:102700008091650390916603A0916703B09168037F
:1027100026B5A89B05C02F3F19F00196A11DB11D3C
:102720003FBFBA2FA92F982F8827820F911DA11D77
:10273000B11D32E0880F991FAA1FBB1F3A95D1F730
:102740008C1B9D0B885E9340B8F20894E108F10859
:1027500001091109C851DC4FE114F104010511050B
:1027600059F6DF91CF911F910F91FF90EF9008954F
:10277000CF93DF93482F50E0CA01855D974FFC014E
:102780003491495E574FFA018491882369F190E0B2
:10279000880F991FFC01E750F84FA591B491FC01F7
:1027A000ED5FF74FC591D491662351F42FB7F8949C
:1027B0008C91932F909589238C93888189230BC0CA
:1027C000623061F42FB7F8948C91932F9095892300
:1027D0008C938881832B88832FBF06C09FB7F89482
:1027E0008C91832B8C939FBFDF91CF910895482FBD
:1027F00050E0CA01815C974FFC012491CA01855DBC
:10280000974FFC019491495E574FFA01349133235D
:1028100009F440C0222351F1233071F0243028F410
:102820002130A1F0223011F514C02630B1F027304C
:10283000C1F02430D9F404C0809180008F7703C0A8
:10284000809180008F7D8093800010C084B58F7749
:1028500002C084B58F7D84BD09C08091B0008F77A0
:1028600003C08091B0008F7D8093B000E32FF0E033
:10287000EE0FFF1FED5FF74FA591B4912FB7F894BE
:10288000662321F48C919095892302C08C91892B29
:102890008C932FBF0895682F70E0CB01815C974F18
:1028A000FC012491CB01855D974FFC014491695E49
:1028B000774FFB019491992319F420E030E03CC05C
:1028C000222351F1233071F0243028F42130A1F07B
:1028D000223011F514C02630B1F02730C1F0243079
:1028E000D9F404C0809180008F7703C0809180006C
:1028F0008F7D8093800010C084B58F7702C084B52F
:102900008F7D84BD09C08091B0008F7703C0809116
:10291000B0008F7D8093B000892F90E0880F991FC1
:10292000835F974FFC01A591B4918C9120E030E03A
:10293000842311F021E030E0C9010895DC015C96A8
:102940008C915C97FD01E80FF11DE35AFF4F208148
:102950005C968C915C9790E001968F7390705C967A
:102960008C935C975696ED91FC91579720835096E7
:10297000ED91FC9151978081806480835B969C915E
:102980005B975C968C915C97981739F45296ED9111
:10299000FC91539780818F7D80830895DF92EF9221
:1029A000FF920F931F93CF93DF93EC017A018B017A
:1029B000D22EE889F98982E08083403081EE580781
:1029C00080E0680780E07807A1F060E079E08DE3BF
:1029D00090E0A80197010E94EB1B2150304040403D
:1029E0005040569547953795279580E12030380718
:1029F00098F0E889F989108260E874E88EE190E047
:102A0000A80197010E94EB1B2150304040405040EC
:102A10005695479537952795EC85FD853083EE854E
:102A2000FF852083188EEC89FD89D082EA89FB8995
:102A3000808180618083EA89FB89808188608083CE
:102A4000EA89FB89808180688083EA89FB898081AB
:102A50008F7D8083DF91CF911F910F91FF90EF9039
:102A6000DF900895FC01218D828D30E0205C3F4F86
:102A7000281B31092F733070C9010895FC01918D15
:102A8000828D981719F42FEF3FEF06C0828DE80F63
:102A9000F11D858D282F30E0C9010895DC0159967C
:102AA0009C9159975A968C915A97981719F42FEF31
:102AB0003FEF10C05A968C915A97FD01E80FF11D17
:102AC000958D5A968C915A978F5F8F735A968C93E7
:102AD000292F30E0C9010895CF93DF93EC01888D51
:102AE000882361F419C08C9185FF0AC0E889F989AF
:102AF000808185FF05C0CE010E949E14AA89BB89F2
:102B00008C9185FD05C0E889F989808186FD04C026
:102B10000FB607FEE8CFF4CFDF91CF9108950F9362
:102B20001F93CF93DF93EC01062F9B8D8C8D98170D
:102B300091F5E889F989808185FF2DC0EE89FF89AB
:102B40006083E889F9898081806480831DC00FB625
:102B500007FC08C0E889F989808185FF03C0CE01A0
:102B60000E949E148C8D181791F38B8DFE01E80F37
:102B7000F11DE35AFF4F00831B8FEA89FB89808197
:102B80008062808381E0888F81E090E0DF91CF9147
:102B90001F910F9108951B8D1F5F1F73E3CF87E572
:102BA00096E1892B51F081EF96E0892B31F00E945C
:102BB0005716882311F00E94F10608951F920F9274
:102BC0000FB60F9211242F938F939F93EF93FF9340
:102BD000E0917E03F0917F03808182FD16C0E09139
:102BE0008403F09185032081909187039F5F9F73F9
:102BF00080918803981771F0E0918703F0E0E25923
:102C0000FC4F258F9093870305C0E0918403F091DA
:102C10008503E081FF91EF919F918F912F910F900C
:102C20000FBE0F901F9018951092710310927003B1
:102C300088EE93E0A0E0B0E080937203909373037A
:102C4000A0937403B093750381EA91E090936F03AE
:102C500080936E0385EC90E090937B0380937A03DE
:102C600084EC90E090937D0380937C0380EC90E073
:102C700090937F0380937E0381EC90E09093810397
:102C80008093800382EC90E090938303809382038F
:102C900086EC90E0909385038093840310928703E1
:102CA000109288031092890310928A0308958EE689
:102CB00093E00E94321520E0892B09F021E0822F59
:102CC00008951F920F920FB60F9211242F933F93E6
:102CD0004F935F936F937F938F939F93AF93BF9324
:102CE000EF93FF938EE693E00E949E14FF91EF9185
:102CF000BF91AF919F918F917F916F915F914F9114
:102D00003F912F910F900FBE0F901F901895CF936A
:102D1000DF930E9415130E945D09CFECD5E10E945C
:102D200012092097E1F30E94CF15F9CFCF92DF92DD
:102D3000EF92FF920F931F93CF93DF937C016B0170
:102D40008A01C0E0D0E00FC0D6016D916D01D701BE
:102D5000ED91FC910190F081E02DC7010995C80F1C
:102D6000D91F015010400115110571F7CE01DF91F7
:102D7000CF911F910F91FF90EF90DF90CF9008952A
:102D8000EF92FF920F931F93CF93DF937C018B0100
:102D9000C0E0D0E0F8010F5F1F4F6491662359F047
:102DA000D701ED91FC910190F081E02DC7010995CB
:102DB000C80FD91FEFCFCE01DF91CF911F910F9197
:102DC000FF90EF900895CF93DF93FB01EC01A88172
:102DD000B98160817181448155811296ED91FC9198
:102DE00013970995DF91CF910895DC01ED91FC9146
:102DF0000190F081E02D09950895EF92FF920F93D5
:102E00001F938C01DC01ED91FC910190F081E02D8C
:102E10006DE009957C01D801ED91FC910190F08164
:102E2000E02DC8016AE009959C012E0D3F1DC901E6
:102E30001F910F91FF90EF900895EF92FF920F93E3
:102E40001F937C010E94C0168C01C7010E94FD16D1
:102E50009C01200F311FC9011F910F91FF90EF902E
:102E60000895EF92FF920F931F937C010E94E31647
:102E70008C01C7010E94FD169C01200F311FC90162
:102E80001F910F91FF90EF900895CF93DF93EC0186
:102E90006115710519F420E030E00FC0DB010D90E1
:102EA0000020E9F71197A61BB70BE881F981028092
:102EB000F381E02DAD0109959C01C901DF91CF910E
:102EC00008954F925F927F928F929F92AF92BF929E
:102ED000CF92DF92EF92FF920F931F93DF93CF93E6
:102EE000CDB7DEB7A1970FB6F894DEBF0FBECDBF4A
:102EF0002C01742ECB01223008F42AE019A231E211
:102F0000C32ED12CCC0EDD1E822E9924AA24BB24E4
:102F1000672D752FA50194010E94EB1B79018A0191
:102F2000C801B701A50194010E94CC1B472D461B87
:102F30000894C108D1084A3014F4405D01C0495CCE
:102F4000F6014083E114F1040105110521F07E2C06
:102F50005F2DC801DDCFC201B6010E944517A196C1
:102F60000FB6F894DEBF0FBECDBFCF91DF911F919A
:102F70000F91FF90EF90DF90CF90BF90AF909F9018
:102F80008F907F905F904F900895DC01211531055F
:102F900041F4ED91FC910190F081E02D642F0995B1
:102FA00008950E9461170895EF92FF920F931F9367
:102FB0009A017B0100E010E0B801A7010E94C5174B
:102FC0001F910F91FF90EF900895CF92DF92EF92B3
:102FD000FF920F931F936C017B019A0100E010E0B8
:102FE000B801A7010E94C5178C01C6010E94FD16F9
:102FF000080F191FC8011F910F91FF90EF90DF90EC
:10300000CF900895EF92FF920F931F939A01E62EAF
:10301000FF2400E010E0B801A7010E94C5171F912E
:103020000F91FF90EF900895CF92DF92EF92FF9271
:103030000F931F936C01E62E9A01FF2400E010E02D
:10304000B801A7010E94C5178C01C6010E94FD1698
:10305000080F191FC8011F910F91FF90EF90DF908B
:10306000CF900895CF92DF92EF92FF920F931F932C
:10307000CF93DF93EC016A017B012115310541F407
:10308000E881F9810190F081E02D642F09951FC03E
:103090002A303105D1F477FF17C0E881F98101901A
:1030A000F081E02D6DE209958C0144275527BA0186
:1030B0004C195D096E097F09CE012AE00E94611753
:1030C0009801280F391F04C02AE00E9461179C0153
:1030D000C901DF91CF911F910F91FF90EF90DF9089
:1030E000CF900895CF92DF92EF92FF920F931F93AC
:1030F0006C017B019A010027F7FC0095102FB801A5
:10310000A7010E9432188C01C6010E94FD16080F0B
:10311000191FC8011F910F91FF90EF90DF90CF9082
:1031200008950E9445170895EF92FF920F931F9301
:103130007C010E9445178C01C7010E94FD16080FF3
:10314000191FC8011F910F91FF90EF9008950F93E1
:103150001F93CF93DF93FC018B0141155105F9F0CB
:1031600061157105E1F0848195812817390718F000
:10317000FB01108214C041505040EC01C21BD30B24
:103180004C175D0708F4EA0160817181620F731FBB
:10319000C801AE010E948C04C00FD11F1882DF91BC
:1031A000CF911F910F9108950F931F93CF93DF93AA
:1031B000EC018B016F5F7F4F888199810E94EA1A31
:1031C000009711F480E005C0998388831B830A83EC
:1031D00081E0DF91CF911F910F910895CF93DF93FD
:1031E000EC0188819981892B29F08A819B8186173E
:1031F000970760F4CE010E94D418882341F08C8197
:103200009D81892B19F4E881F981108281E0DF9199
:10321000CF910895EF92FF920F931F93CF93DF9377
:10322000EC017B016C817D81E114F104C1F0411559
:10323000510599F08A01060F171FB8010E94EE1878
:10324000882369F0888199812C813D81820F931FA9
:10325000B7010E9485041D830C8381E001C080E0DA
:10326000DF91CF911F910F91FF90EF900895DF9321
:10327000CF9300D0CDB7DEB769831A82BE016F5FEE
:103280007F4F41E050E00E940A190F900F90CF91BC
:10329000DF910895CF93DF93EC01888199810097A6
:1032A00011F00E94521A198218821D821C821B8200
:1032B0001A82DF91CF910895EF92FF920F931F939F
:1032C000CF93DF93EC017B018A01BA010E94EE18D3
:1032D000882321F4CE010E944A1907C01D830C8364
:1032E00088819981B7010E948504CE01DF91CF9139
:1032F0001F910F91FF90EF900895CF93DF93EC0112
:10330000198218821B821A821D821C826115710526
:1033100051F0DB010D900020E9F71197A61BB70BC8
:10332000AD010E945C19DF91CF9108950F931F9317
:10333000182F092F6115710559F0DB010D90002040
:10334000E9F71197A61BB70BAD010E945C1902C0EB
:103350000E944A19812F902F1F910F910895FC010F
:10336000808191810E94521A08950F931F93CF93E9
:10337000DF93BC018230910510F462E070E0E091CF
:103380000D04F0910E0440E050E0A0E0B0E024C055
:103390008081918186179707D0F08617970771F47F
:1033A00082819381109729F013969C938E931297A4
:1033B0002CC090930E0480930D0427C04115510535
:1033C00019F08417950718F48D01AC01EF01DF01A6
:1033D000828193819C01F9013097D1F64115510505
:1033E000F9F0CA01861B970B8430910580F48A811D
:1033F0009B810115110521F0F8019383828304C09C
:1034000090930E0480930D04FE01329645C0FE0198
:10341000E80FF91F619371930297998388833CC0E9
:1034200080910B0490910C04892B41F480919601BA
:103430009091970190930C0480930B044091980114
:10344000509199014115510541F44DB75EB78091F6
:10345000940190919501481B590B20910B043091D8
:103460000C0424173507B0F4CA01821B930B86178E
:10347000970780F0AB014E5F5F4F8417950750F0C0
:10348000420F531F50930C0440930B04F9016193B6
:10349000719302C0E0E0F0E0CF01DF91CF911F9186
:1034A0000F910895CF93DF939C01009709F48FC08B
:1034B000EC0122971B821A8260910D0470910E0418
:1034C0006115710581F488819981820F931F209184
:1034D0000B0430910C042817390739F5D0930C04EC
:1034E000C0930B0474C0DB0140E050E0AC17BD0793
:1034F00008F1BB83AA83FE0121913191E20FF31FF2
:10350000AE17BF0779F48D919C911197280F391F41
:103510002E5F3F4F3983288312968D919C9113978C
:103520009B838A834115510571F4D0930E04C09397
:103530000D044DC012968D919C911397AD0100978B
:1035400011F0DC01D3CFDA011396DC93CE931297FE
:10355000FA0121913191E20FF31FCE17DF0769F4D1
:1035600088819981280F391F2E5F3F4FFA013183DF
:1035700020838A819B8193838283E0E0F0E0DB01FA
:1035800012968D919C911397009719F0BC01FD0143
:10359000F6CFAB014E5F5F4FDB018D919C91840FA5
:1035A000951F20910B0430910C042817390779F4EA
:1035B000309729F410920E0410920D0402C0138269
:1035C00012824250504050930C0440930B04DF9100
:1035D000CF9108956F927F928F929F92AF92BF92F8
:1035E000CF92DF92EF92FF920F931F93CF93DF93CF
:1035F0008C01009729F4CB010E94B5198C01BBC046
:103600008EEFE82E8FEFF82EE00EF11E4801860EA9
:10361000971E8E149F0408F4ACC0D7014D915C91A5
:10362000119746175707B8F04530510508F4A3C065
:10363000CA0104978617970708F49DC0425050406E
:10364000461B570BF401419351936D937C93CF012B
:103650000E94521A90C05B01A41AB50A3801640E88
:10366000751EA0910D04B0910E04E0E0F0E0CC24B2
:10367000DD2447C0A615B705A9F5CD91DC911197BA
:10368000CE0102968A159B0568F1CE018A199B0925
:10369000029612962C91129713963C91059758F02A
:1036A000F40122833383CA19DB09D183C083D70194
:1036B0006D937C9309C04E5F5F4F4C0F5D1FF70108
:1036C00051834083C901FC01C114D10431F0D601FA
:1036D0001396FC93EE9312974EC0F0930E04E09372
:1036E0000D0449C08D919C911197E817F90708F4D2
:1036F000FC016D0112968C91129713969C919C017E
:10370000D901109709F0B6CF80910B0490910C0469
:1037100086159705E9F4E617F707D0F4209198018C
:10372000309199012115310541F42DB73EB78091B3
:10373000940190919501281B390B82169306C8F4C9
:1037400090920C0480920B04F7017183608313C084
:10375000CB010E94B519EC01009759F0D7014D91AA
:103760005C91B8010E947C04C8010E94521A8E012B
:1037700002C000E010E0C801DF91CF911F910F91CE
:10378000FF90EF90DF90CF90BF90AF909F908F9081
:103790007F906F9008950895629FD001739FF0010C
:1037A000829FE00DF11D649FE00DF11D929FF00DD1
:1037B000839FF00D749FF00D659FF00D9927729F08
:1037C000B00DE11DF91F639FB00DE11DF91FBD0193
:1037D000CF0111240895A1E21A2EAA1BBB1BFD01E3
:1037E0000DC0AA1FBB1FEE1FFF1FA217B307E407E0
:1037F000F50720F0A21BB30BE40BF50B661F771F38
:10380000881F991F1A9469F7609570958095909517
:103810009B01AC01BD01CF010895EE0FFF1F059084
:10382000F491E02D099418E0C8E5D8E004C0FE0149
:103830000E940F1C2296CA35D107C9F7F894FFCF12
:10384000004A756D70696E6720746F20626F6F74C7
:103850006C6F61646572004552524F5220003A20ED
:10386000000A00433A5C55736572735C6D6F6D6A54
:103870005C446F63756D656E74735C4172647569E9
:103880006E6F5C6C69627261726965735C424C4513
:103890005C6163695F71756575652E63707000208A
:1038A0003A0043002045000180000104000180002F
:1038B00001800001800001800001800001080001FA
:1038C00002000100040108000102000102000108D9
:1038D0000001800080001104000008090A000000B7
:0E38E000008F15961632154E153E156C15000C
:00000001FF
