:100000000C9476030C94E70E0C94140F0C949E033E
:100010000C949E030C949E030C949E030C949E03DC
:100020000C949E030C949E030C949E030C949E03CC
:100030000C949E030C949E030C949E030C949E03BC
:100040000C94410F0C949E030C9452120C94D512F4
:100050000C949E030C949E030C949E030C949E039C
:100060000C949E030C949E0353657269616C206925
:100070006E7075742064726F707065640053656E85
:1000800064696E673A2000416476657274697369C9
:100090006E6720737461727465642E2054617020E1
:1000A000436F6E6E656374206F6E20746865206E9A
:1000B00052462055415254206170700048572065C7
:1000C00072726F723A20002020506970652045726C
:1000D000726F7220436F64653A2030780041434963
:1000E000204576742050697065204572726F723AAF
:1000F000205069706520233A00002000204461747C
:10010000612848657829203A200050697065204EA2
:10011000756D6265723A2000416476657274697328
:10012000696E6720737461727465642E2054617007
:1001300020436F6E6E656374206F6E207468652057
:100140006E524620554152542061707000457674BD
:1001500020446973636F6E6E65637465642F4164D8
:10016000766572746973696E672074696D65642061
:100170006F757400457674206C696E6B20636F6ECA
:100180006E656374696F6E20696E74657276616CFA
:10019000206368616E6765640053656E64696E67AD
:1001A000203A00457674205069706520537461745C
:1001B00075730045767420436F6E6E656374656475
:1001C0000045767420436D6420726573706F6E65B0
:1001D0003A20537461747573200041434920436F82
:1001E0006D6D616E64200041647665727469736937
:1001F0006E672073746172746564203A2054617074
:1002000020436F6E6E656374206F6E207468652086
:100210006E524620554152542061707000457674EC
:100220002044657669636520537461727465643A2D
:10023000205374616E64627900457674204465765B
:1002400069636520537461727465643A2053657400
:100250007570000007060000020241FE0000000069
:10026000000000000000000000000000000000008E
:1002700000000000001F0610000000000000000A3F
:10028000000B0101000006000090000000000000CB
:100290000000000000001E06101C0102000000000B
:1002A000000000000000000000000000001000003E
:1002B000001403900100001F062000040402020045
:1002C00001280001001804040505000228030102AA
:1002D0000300002A040414001F06201C0500032A42
:1002E000000148656C6C6F6373656D692E636F6D9B
:1002F0000000000000000404001F0620380505006F
:1003000004280301020500012A0604030200052A4D
:10031000010180000404050500001F062054062882
:100320000301020700042A0604090800072A040141
:100330000A00120000000A000404001F06207002D8
:10034000020008280001011804040505000928031B
:1003500001220A00052A2604050400001F06208C3D
:100360000A2A05010000000046140302000B2902BE
:1003700001000004040202000C280001001F0620F6
:10038000A80A1804040505000D280301020E002721
:100390002A04040901000E2A27010A0000001F0692
:1003A00020C400000000000004040505000F28031D
:1003B00001021000292A0404140200102A29001F37
:1003C0000620E001303100000000000000000000C5
:1003D00000000000000000000404050500112800D2
:1003E0001F0620FC0301021200242A040408020054
:1003F000122A240131320000000000000404050527
:10040000001F0621180013280301021400262A04E5
:1004100004040200142A26013334000004040505F4
:1004200000001F06213415280301021600502A0679
:1004300004080700162A5001020000AAAACCCC0426
:100440000410001F0621501000172800019ECADC6E
:10045000240EE5A9E093F3A3B50100406E04041354
:10046000130018001F06216C2803010419009ECAFE
:10047000DC240EE5A9E093F3A3B50200406E44101E
:1004800014000019001F062188000202000000006D
:10049000000000000000000000000000000000005C
:1004A0000404131300001F0621A41A280301101BC3
:1004B000009ECADC240EE5A9E093F3A3B503004037
:1004C0006E1400140000001F0621C01B0003020070
:1004D000000000000000000000000000000000001C
:1004E00000000046140302001F0621DC001C290244
:1004F00001000004041313001D280301141E009EB4
:10050000CADC240EE5A9E093001F0621F8F3A3B589
:100510000400406E54100900001E00040200000098
:10052000000000000000461403001F062214020011
:100530001F290201000004041313002028030102F4
:1005400021009ECADC240EE5A9E0001B06223093A0
:10055000F3A3B50500406E0604070600210005025E
:10056000FFFFFFFFFFFF0000000000001F0640002C
:100570002A0501000404000A000B2A270100800458
:10058000000E00002A29010080040010001F064010
:100590001C00002A2401008004001200002A260109
:1005A000008004001400002A5001008004001F068F
:1005B0004038001600000002020008040019000084
:1005C000000302000204001B001C000402000013D0
:1005D0000640540A04001E001F00050200800400AB
:1005E00021000000000000000000000000000000EA
:1005F000130650009ECADC240EE5A9E093F3A3B5D0
:100600000000406E0000000000000000000000003C
:10061000000606F00002B2D1000000000000000059
:1006200000000000000000000000000000000000CA
:100630000053657420757020646F6E650053657497
:10064000206C696E6520656E64696E6720746F202A
:100650006E65776C696E6520746F2073656E6420BB
:10066000646174612066726F6D20746865207365C3
:100670007269616C206D6F6E69746F720041726493
:1006800075696E6F20736574757000002C20000012
:10069000000000240027002A000000000025002898
:1006A000002B0000000000230026002900040404A1
:1006B000040404040402020202020203030303030B
:1006C00003010204081020408001020408102001E8
:1006D00002040810200000000700020100000304CB
:1006E00006000000000000000000881211241FBE58
:1006F000CFEFD8E0DEBFCDBF11E0A0E0B1E0EEE784
:10070000FAE202C005900D92AC3AB107D9F714E0B5
:10071000ACEAB1E001C01D92A330B107E1F716E0E9
:10072000CCEED6E004C02297FE010E943915CA3EE5
:10073000D107C9F70E94FB120C943D150C940000E0
:10074000FB01DC0102C005900D9241505040D8F7EA
:100750000895FB01DC0102C001900D924150504010
:10076000D8F708951F9311E027C086E693E00E9412
:10077000C211982F8093AE018091AC018823E1F4DF
:100780008091AD019A3051F0843170F086E693E0AB
:1007900060E071E00E94E2148091AD01815080938D
:1007A000AD011093AC0108C0E82FF0E0E155FE4F19
:1007B00090838F5F8093AD0186E693E00E94A6113F
:1007C0001816190694F21F9108951F93CF93DF9383
:1007D000EC01162F84EC91E068E00E94AF0C8823B6
:1007E00091F08091D901882371F088E0BE01412FFA
:1007F0000E94460D982F882339F08091D9018150AD
:100800008093D90101C090E0892FDF91CF911F9192
:100810000895CF93DF93EC0184EC91E069E00E94AE
:10082000AF0C882379F186E693E0688140E150E0DF
:100830000E9462148881823081F0833018F4813004
:1008400009F505C08330B1F08430E1F417C084ECC1
:1008500091E061E00E948B0D0FC0FE013196628134
:100860007381448155812681378189819A810E94D3
:100870001B0D02C01092150281E005C081E080933B
:10088000150201C080E0DF91CF910895EF92FF92B1
:100890000F931F93DF93CF93CDB7DEB763970FB658
:1008A000F894DEBF0FBECDBF84EC91E061EF71E044
:1008B0000E94C30C882309F4ADC18091F3018638EE
:1008C00009F4E1C0873880F4833809F470C18438B2
:1008D00020F4813809F09EC11AC0843809F449C057
:1008E000853809F097C173C08A3809F434C18B3850
:1008F00038F4883809F47DC0893809F08BC1B4C058
:100900008C3809F4D1C08D3809F084C12AC1809196
:10091000F6018093D7018091F401823021F0833079
:1009200009F078C10AC086E693E069E372E00E94AC
:100930007F1381E0809314026DC186E693E06DE140
:1009400072E00E947F138091F501882339F064E101
:1009500070E080E090E00E94C40F5CC180E090E015
:1009600060E570E00E94B00D86E693E067EE71E00E
:100970004FC18091F5018823F1F086E693E06AED9E
:1009800071E00E9434136091F40186E693E070E018
:1009900040E150E00E94C01486E693E061EC71E013
:1009A0000E9434136091F50186E693E070E040E127
:1009B00050E00E94C0148091F401893009F02AC1EE
:1009C00084EC91E062E046EF51E029E059C086E610
:1009D00093E063EB71E00E947F1381E08093150246
:1009E000109213028091D7018093D9010E94120EB8
:1009F00011C186E693E063EA71E00E947F1384EC04
:100A000091E068E00E94AF0C882309F403C1809153
:100A10001302882309F0FEC00E940D0D81E080932F
:100A20001302DE011196E7E1F1E083E101900D92FE
:100A30008150E1F78E010F5F1F4FF80101900020F8
:100A4000E9F73197E01BF10BC8016E2F0E94E50317
:100A500086E693E069E971E00E94341386E693E04C
:100A6000B8010E94E214D6C086E693E064E771E024
:100A70000E947F1384EC91E06BE044EF51E026E0AC
:100A80000E94D10DC7C086E693E06DE471E00E943C
:100A90007F1380E090E060E570E00E94B00D86E694
:100AA00093E068E171E0B4C086E693E06AE071E04B
:100AB0000E94341386E693E06091F4014AE050E02E
:100AC0000E9462148091F4018730C1F586E693E0BC
:100AD0006CEF70E00E94341385EFE82E81E0F82E71
:100AE00000E010E015C086E693E0D7016C910E940B
:100AF0005713F801E155FE4FD7018D917D01808399
:100B000086E693E06AEF70E00E9434130F5F1F4F98
:100B10002091F201822F90E00297081719071CF329
:100B200022502093C30186E693E069EF70E00E94B3
:100B30007F1384EC91E068E00E94AF0C8091F40197
:100B40008A3009F067C06091F201625085EF91E050
:100B50000E9409045FC08091F4019091D901890F2E
:100B600023C086E693E06DED70E00E94341386E6C4
:100B700093E06091F4014AE050E00E94501486E650
:100B800093E067EC70E00E94341386E693E0609196
:100B9000F50140E150E00E9462148091F501823934
:100BA000C9F18091D9018F5F8093D90133C086E666
:100BB00093E06CEB70E00E9434136091F40170914B
:100BC000F50186E693E04AE050E00E94331410E01D
:100BD00008C0EF50FE4F86E693E065810E94031245
:100BE0001F5FE12FF0E08091F20190E00297E8179B
:100BF000F9077CF386E693E00E945F1380E090E0C3
:100C000060E570E00E94B00D86E693E067E870E072
:100C10000E947F1380911402882341F084EC91E0BC
:100C20000E94AF09882311F41092140263960FB644
:100C3000F894DEBF0FBECDBFCF91DF911F910F9112
:100C4000FF90EF9008950E9446048091AC018823A4
:100C500069F186E693E06DE770E00E94341386E662
:100C600093E06FEA71E00E94E2144091AD014F5FA2
:100C70004093C30188E06FEA71E00E94460D88232B
:100C800031F486E693E068E670E00E947F1380E02E
:100C900090E206C0E82FF0E0E155FE4F90838F5FB1
:100CA0008431C0F31092AD011092AC0108950F93FE
:100CB0001F9306E613E0C80140E052EC61E070E0EB
:100CC00026E00E944211C8016DE776E00E947F1382
:100CD000C8016DE376E00E947F13E0EDF1E08AE762
:100CE00091E09093D1018093D0012BE02093D20129
:100CF00083E592E09093D4018093D3018EE18093B9
:100D0000D5013C97108289E08093C50188E08093EB
:100D1000C6012093C7018CE08093C8018DE08093C9
:100D2000C90185E08093CA0184E08093CB018FEFF5
:100D30008093CC018093CD011092CE0181E080930D
:100D4000CF01CF0160E00E94810EC80161E376E02F
:100D50000E947F131F910F910895EF92FF920F93BE
:100D60001F938C017B0186E693E06AE271E00E94AA
:100D7000DF1486E693E0B8010E94DF1486E693E074
:100D800061E371E00E94DF1486E693E0B7014AE078
:100D900050E00E94221486E693E064E371E00E9432
:100DA000DF14FFCF882319F48CB5806202C08CB5A4
:100DB0008F7D8CBD08959CB5937F982B9CBD089525
:100DC0002CB5382F33702C7F322B3CBD2DB590E0E5
:100DD000959587959595879581702E7F822B8DBDF2
:100DE00008958AE061E00E946B108AE061E00E9451
:100DF0002C108CB580618CBD8CB580648CBD8DE071
:100E000061E00E942C108BE061E00E942C1008959C
:100E1000FC0181E0808389E081830895FC01DB018E
:100E200085E080838FE0818311968C911197838375
:100E30008C91828313968C911397858312968C9153
:100E400084830895FC01DB0182E0808381E181835A
:100E50008C9182830895FC0181E080838EE0818300
:100E60000895FC01DB0189E0808383E18183119691
:100E70008C91119783838C91828313968C91139715
:100E8000858312968C911297848315968C91159771
:100E9000878314968C911497868317968C91179755
:100EA000818716968C9180870895FC0181E080836C
:100EB00083E181830895DC014E5F4C93425085E1CC
:100EC00011968C931197FB01819112968C93129736
:100ED0001396CD01BF0150E00E94A9030895DC01E3
:100EE0004E5F4C9342508DE011968C931197FB010D
:100EF000819112968C9312971396CD01BF0150E009
:100F00000E94A90308951F93CF93DF93EC01CB5761
:100F1000DF4F1881C558D04031F486E391E069EA8B
:100F200070E00E94AD0630E0812F90E00196837062
:100F30009070CC57DF4F2881281709F431E0832FB8
:100F4000DF91CF911F910895CF93DF93EC0100972C
:100F500031F486E391E060E970E00E94AD06F89418
:100F6000789430E0CB57DF4F888190E00196837012
:100F70009070FE012291281709F431E0832FDF9150
:100F8000CF910895CF93DF93EC01009731F486E37E
:100F900091E066E870E00E94AD0620E0FE01EB57AC
:100FA000FF4FCC57DF4F98818081981709F421E0DB
:100FB000822FDF91CF910895CF93DF93EC010097BB
:100FC00031F486E391E067E770E00E94AD06F894A3
:100FD000789420E0FE01EB57FF4FCC57DF4F98810C
:100FE0008081981709F421E0822FDF91CF91089535
:100FF000CF93DF93EC01009731F486E391E062E256
:1010000070E00E94AD06CC57DF4F19921882C55888
:10101000D040FE0180E0118212828F5FB196843051
:10102000D1F7DF91CF9108950F931F93CF93DF9363
:10103000EC018B01009731F486E391E060EB70E006
:101040000E94AD060115110531F486E391E061EBD4
:1010500070E00E94AD06CE010E94DC07882311F0EB
:1010600080E013C0CC57DF4F8881FE01E458F04088
:1010700021E2829FC0011124D801E80FF91F81E20B
:1010800001900D928150E1F781E0DF91CF911F91A6
:101090000F910895DF92EF92FF920F931F93CF93DA
:1010A000DF93EC017B01FB01D180009731F486E3F3
:1010B00091E064E670E00E94AD06E114F10431F4C1
:1010C00086E391E065E670E00E94AD06CE010E94E5
:1010D0008307882311F080E02EC08E010B571F4F2D
:1010E000F801808190E0FC0125E0EE0FFF1F2A95BA
:1010F000E1F7E80FF91FEC0FFD1F1082F8012081C6
:1011000081E2289F900111242F5F3F4F2C0F3D1F3C
:10111000ED2DF0E03196A7014F5F5F4FC901BA0195
:10112000AF010E94A903F801808190E001968370CD
:101130009070808381E0DF91CF911F910F91FF909C
:10114000EF90DF900895DF92EF92FF920F931F933D
:10115000CF93DF93EC017B01FB01D180009731F449
:1011600086E391E061E570E00E94AD06E114F104D0
:1011700031F486E391E062E570E00E94AD06CE01B5
:101180000E94A407882311F080E02EC08E010B5727
:101190001F4FF801808190E0FC0135E0EE0FFF1F4A
:1011A0003A95E1F7E80FF91FEC0FFD1F1082F801E7
:1011B000208181E2289F900111242F5F3F4F2C0F47
:1011C0003D1FED2DF0E03196A7014F5F5F4FC90144
:1011D000BA01AF010E94A903F801808190E0019655
:1011E00083709070808381E0DF91CF911F910F9188
:1011F000FF90EF90DF9008950F931F93CF93DF93AD
:10120000EC018B01009731F486E391E06FE370E02D
:101210000E94AD060115110531F486E391E060E40A
:1012200070E00E94AD06CE010E94C207882311F033
:1012300080E01AC0CC57DF4F9881C458D04081E27B
:10124000989FF0011124D801EC0FFD1F01900D9221
:101250008150E1F7FE01EC57FF4F808190E001964D
:1012600083709070808381E0DF91CF911F910F9107
:1012700008950F931F93CF93DF93EC018B01009799
:1012800031F486E391E06FE270E00E94AD06011553
:10129000110531F486E391E060E370E00E94AD0651
:1012A000CE010E94DC07882311F080E01AC0CC57E1
:1012B000DF4F9881C458D04081E2989FF0011124FB
:1012C000D801EC0FFD1F01900D928150E1F7FE0156
:1012D000EC57FF4F808190E001968370907080837F
:1012E00081E0DF91CF911F910F910895EF92FF92CE
:1012F0000F931F93CF93DF938C01EB01FF2481E2C7
:10130000E82E20C0D8011F96ED91FC9150979E9D2C
:10131000C0011124E80FF91F31964491319750E034
:101320004E5F5F4F86E293E0BF010E94A00386E21A
:1013300093E00E94A90A882351F088818F5F8883F7
:10134000FF24F3949881F80181899817D8F28F2DA2
:10135000DF91CF911F910F91FF90EF9008959F9291
:10136000AF92BF92CF92DF92EF92FF920F931F93B3
:10137000DF93CF930F92CDB7DEB75C0119820E9445
:10138000C00C882311F481E049C086E293E00E94FA
:101390000A0D882311F082E041C0C5018E010F5F64
:1013A0001F4FB8010E947609CC24DD247601902ECF
:1013B000012F0BC08FEFC8168FEFD8068FE0E8061D
:1013C00080E0F80610F083E029C00894C11CD11C0D
:1013D000E11CF11C86E293E00E940A0D882351F380
:1013E00080912803843811F085E018C010912A03F9
:1013F000113021F0123051F084E010C0C501692D88
:10140000702F0E947609CC24DD247601C50166E2A6
:1014100073E00E94C30C123069F680E00F90CF9108
:10142000DF911F910F91FF90EF90DF90CF90BF90D1
:10143000AF909F90089587E192E00E94DC070895A5
:10144000FF920F931F93CF93DF938C01EB01E091F9
:101450002403F0912503818160E00E946B10F80164
:1014600081818EBD0DB407FEFDCF8EB58883F80156
:1014700082818EBD0DB407FEFDCF5EB55983F801A4
:101480004181442349F0242F30E0852F90E08217DA
:10149000930714F4542F5150F52EFFE1F51710F473
:1014A0008FE1F82E4C2FD801CE01FC010BC0139612
:1014B0008C9113978EBD0DB407FEFDCF8EB5828340
:1014C000319611968E2F841B8F1588F3E09124039B
:1014D000F0912503818161E00E946B108F2DF11046
:1014E00081E0DF91CF911F910F91FF9008950F93AD
:1014F0001F93CF93DF93EC01098186E693E0602F81
:101500004AE050E00E94501486E693E062E771E002
:101510000E94DF1410E0FE01E10FF11D86E693E06A
:10152000618140E150E00E94501486E693E06CE84F
:1015300076E00E9434131F5F011768F786E693E098
:101540006BE876E00E947F13DF91CF911F910F919E
:1015500008951F93CF93DF93EC018981803210F0BF
:1015600010E023C087E192E0BE010E94A308182F7B
:101570008823D9F08DE992E00E94A407882341F4E2
:10158000E0912403F0912503818160E00E946B10BB
:1015900080912303882349F086E693E065E771E0B4
:1015A0000E94DF14CE010E94770A812FDF91CF9134
:1015B0001F910895E0912403F091250387818F3FC7
:1015C00089F161E00E942C10E0912403F091250341
:1015D0008081813099F4878161E00E946B1064E61C
:1015E00070E080E090E00E94C40FE0912403F0914D
:1015F0002503878160E00E946B100895878161E078
:101600000E946B10E0912403F0912503878160E034
:101610000E946B10E0912403F0912503878161E023
:101620000E946B100895CF93DF93EC016093230326
:1016300090932503809324030E94F10680E00E948A
:10164000D2068E810E94E00680E00E94DB0687E1E0
:1016500092E00E94F8078DE992E00E94F8078A81E3
:1016600062E00E942C10898161E00E942C10888524
:101670008F3F19F060E00E942C100E94DA0A8C81E2
:1016800060E00E946B108B8160E00E946B1089818A
:1016900061E00E946B108D8160E00E946B1061E040
:1016A00070E080E090E00E94C40F898161E00E94B8
:1016B0006B1061E070E080E090E00E94C40F8981CF
:1016C00060E00E946B1061E070E080E090E00E94BA
:1016D000C40F898161E00E946B1061E070E080E0DE
:1016E00090E00E94C40F898160E00E946B106EE15F
:1016F00070E080E090E00E94C40F8A85882339F072
:101700008B856AE87BE040E050E00E94B10EDF91FB
:10171000CF910895DF93CF93CDB7DEB7C254D040B9
:101720000FB6F894DEBF0FBECDBF87E192E0BE01D9
:101730006F5F7F4F0E94FC08882311F419821A8280
:10174000CE010196BE016E5D7F4F0E94200A8DE999
:1017500092E00E948307882371F487E192E00E945F
:10176000C207882341F4E0912403F091250381818D
:1017700060E00E946B108BA18823B9F08DE992E0A4
:10178000BE016E5D7F4F0E944A08882309F4FFCF97
:101790008DE992E00E948307882339F0E0912403C9
:1017A000F091250383850E94D40ECE5BDF4F0FB6E8
:1017B000F894DEBF0FBECDBFCF91DF910895DF93C8
:1017C000CF93CDB7DEB7C254D0400FB6F894DEBF8A
:1017D0000FBECDBF8DE992E00E94A407882309F0D7
:1017E0004BC0E0912403F091250382810E94BF1039
:1017F000019779F487E192E00E94DC078823E1F504
:10180000E0912403F0912503818160E00E946B1038
:1018100033C087E192E0BE016F5F7F4F0E943909BC
:10182000882311F419821A82CE010196BE016E5DE1
:101830007F4F0E94200A8DE992E00E94A40788232E
:1018400071F487E192E00E94DC07882341F4E09183
:101850002403F0912503818160E00E946B108BA12D
:10186000882351F08DE992E0BE016E5D7F4F0E94AA
:10187000A308882309F4FFCFCE5BDF4F0FB6F8949F
:10188000DEBF0FBECDBFCF91DF9108951F93CF93E1
:10189000DF93EC01E0912403F091250382858823F6
:1018A00041F48DE992E00E94A407882311F40E947C
:1018B000DF0B8DE992E00E94A407182F8DE992E0DA
:1018C000BE010E943909882391F180912303882366
:1018D00049F086E693E067E771E00E94DF14CE01ED
:1018E0000E94770A112371F0E0912403F0912503FF
:1018F0008285882339F083856AE87BE040E050E008
:101900000E94B10E8DE992E00E94A407882371F431
:1019100087E192E00E94DC07882341F4E0912403F0
:10192000F0912503818160E00E946B1081E0DF91DE
:10193000CF911F910895CF93DF93EC01E0912403A1
:10194000F09125038285882311F40E94DF0B8DE935
:1019500092E0BE010E941408DF91CF910895262FD6
:10196000269526952695FC01E20FF11D848D90E0C9
:10197000677002C0959587956A95E2F78170089522
:101980000E941B0A08950F931F93CF93DF938C013E
:10199000EB01CB010E94460C282F8823A9F18A81F4
:1019A000883829F0893819F1863871F512C0DE01BE
:1019B000F8017C9690E013968C91139780831B9688
:1019C0008C911B9780879F5F11963196983099F77D
:1019D0001BC0F8017C9680E0108210868F5F3196E4
:1019E0008830D1F7F80114A68389858B0DC08B81CF
:1019F0009C81F801978B868B8D819E81918F808F42
:101A00008F819885938F828F822FDF91CF911F9145
:101A10000F9108950E949B0C08950F931F9307E266
:101A200013E0C8010E945507C80101970E94A90A46
:101A30001F910F9108950F931F93DF93CF93CDB70D
:101A4000DEB728970FB6F894DEBF0FBECDBF9A83DE
:101A500089837C836B835E834D8338872F8307E282
:101A600013E0C801BE016F5F7F4F0E943107C801BC
:101A700001970E94A90A28960FB6F894DEBF0FBE00
:101A8000CDBFCF91DF911F910F9108951F93DF93E9
:101A9000CF93CDB7DEB765970FB6F894DEBF0FBE14
:101AA000CDBF582F142F282F30E0C901880F991F60
:101AB000820F931FE0914F03F0915003E80FF91F3D
:101AC0003397818192818230910511F00497C1F49E
:101AD0001531B0F459839E012E5F3F4FC901412F4C
:101AE00050E00E94A90387E293E0BE016F5F7F4F41
:101AF000412F0E945B0786E293E00E94A90A01C081
:101B000080E065960FB6F894DEBF0FBECDBFCF91D3
:101B1000DF911F9108950F931F93DF93CF930F923F
:101B2000CDB7DEB78C01698387E293E0BE016F5FBA
:101B30007F4F0E94220786E293E00E94A90A882331
:101B400049F0F8017C9690E0108210869F5F3196F4
:101B50009830D1F70F90CF91DF911F910F91089599
:101B60000F931F93DF93CF9300D000D0CDB7DEB794
:101B70009A8389837C836B8307E213E0C801BE01EB
:101B80006F5F7F4F0E940E07C80101970E94A90A4C
:101B90000F900F900F900F90CF91DF911F910F91A9
:101BA00008951F93DF93CF93CDB7DEB765970FB638
:101BB000F894DEBF0FBECDBF122F262F30E0C90133
:101BC000880F991F820F931FE0914F03F0915003EC
:101BD000E80FF91F339780818130C9F41531B8F4CB
:101BE00069839E012E5F3F4FC901BA01412F50E02A
:101BF0000E94A90387E293E0BE016F5F7F4F412FF0
:101C00000E946F0786E293E00E94A90A01C080E06B
:101C100065960FB6F894DEBF0FBECDBFCF91DF91B2
:101C20001F9108950F931F9307E213E0C8010E94CC
:101C30000807C80101970E94A90A1F910F910895F2
:101C40000F931F9307E213E0C8010E942B07C801FE
:101C500001970E94A90A1F910F910895CF93DF93D6
:101C6000EC018881813009F049C064E670E080E0D1
:101C700090E00E94C40F0E94200ECE0166E273E045
:101C80000E94C30C8823C9F3809128038438A9F7E4
:101C900080912A03833861F484E08093270381E8EC
:101CA0008093280382E08093290310922A030EC0B8
:101CB000882379F484E08093270381E880932803C4
:101CC00083E08093290310922A0382E080932B0300
:101CD0000FC0823899F484E08093270381E88093D1
:101CE000280381E08093290310922A0310922B038A
:101CF0008DE992E066E273E00E94A308DF91CF9144
:101D00000895CF93DF93EC01FC017C96A7E4B3E048
:101D1000108210861D92319683E0AF34B807C1F768
:101D200010925103109255031092540310925203D3
:101D300010925303109256038C859D859093500307
:101D400080934F038F85988990935803809357030E
:101D5000CE010E94130BCE010E942E0EDF91CF9177
:101D60000895823000F5E82FF0E0EE0FFF1FE75AEC
:101D7000FC4F71836083882319F08130A1F408C07F
:101D8000809169008C7F842B80936900E89A089584
:101D900080916900440F551F440F551F837F842B8A
:101DA00080936900E99A0895823080F4882319F0BD
:101DB000813021F402C0E89801C0E998E82FF0E0F2
:101DC000EE0FFF1FE75AFC4F1182108208951F92F9
:101DD0000F920FB60F9211242F933F934F935F935F
:101DE0006F937F938F939F93AF93BF93EF93FF93E3
:101DF0008091590390915A03892B29F0E09159035E
:101E0000F0915A030995FF91EF91BF91AF919F9186
:101E10008F917F916F915F914F913F912F910F9093
:101E20000FBE0F901F9018951F920F920FB60F9232
:101E300011242F933F934F935F936F937F938F93CF
:101E40009F93AF93BF93EF93FF9380915B03909128
:101E50005C03892B29F0E0915B03F0915C03099509
:101E6000FF91EF91BF91AF919F918F917F916F9172
:101E70005F914F913F912F910F900FBE0F901F9048
:101E800018951F920F920FB60F9211242F933F9324
:101E90008F939F93AF93BF9380916103909162035F
:101EA000A0916303B0916403309165030196A11D75
:101EB000B11D232F2D5F2D3720F02D570196A11D29
:101EC000B11D209365038093610390936203A093F7
:101ED0006303B093640380915D0390915E03A091CE
:101EE0005F03B09160030196A11DB11D80935D0356
:101EF00090935E03A0935F03B0936003BF91AF9193
:101F00009F918F913F912F910F900FBE0F901F9037
:101F10001895789484B5826084BD84B5816084BD51
:101F200085B5826085BD85B5816085BDEEE6F0E052
:101F3000808181608083E1E8F0E0108280818260AE
:101F40008083808181608083E0E8F0E0808181602F
:101F50008083E1EBF0E0808184608083E0EBF0E05F
:101F6000808181608083EAE7F0E080818460808303
:101F700080818260808380818160808380818068AD
:101F800080831092C1000895EF92FF920F931F93E8
:101F9000CF93DF937B018C013FB7F89480915D0371
:101FA00090915E03A0915F03B091600326B5A89B5A
:101FB00005C02F3F19F00196A11DB11D3FBFBA2FDB
:101FC000A92F982F8827820F911DA11DB11D52E0C6
:101FD000880F991FAA1FBB1F5A95D1F7EC0130C07B
:101FE0000E94F5143FB7F89480915D0390915E03D1
:101FF000A0915F03B091600326B5A89B05C02F3F59
:1020000019F00196A11DB11D3FBFBA2FA92F982F1E
:102010008827820F911DA11DB11D32E0880F991FE5
:10202000AA1FBB1F3A95D1F78C1B9D0B885E93406E
:10203000B8F20894E108F10801091109C851DC4F10
:10204000E114F1040105110559F6DF91CF911F91BB
:102050000F91FF90EF900895CF93DF93482F50E0BA
:10206000CA018F53994FFC0134914355594FFA01DE
:102070008491882369F190E0880F991FFC01E15752
:10208000F94FA591B491FC01E756F94FC591D49150
:10209000662351F42FB7F8948C91932F9095892350
:1020A0008C93888189230BC0623061F42FB7F89438
:1020B0008C91932F909589238C938881832B88838F
:1020C0002FBF06C09FB7F8948C91832B8C939FBF32
:1020D000DF91CF910895482F50E0CA018B52994F5C
:1020E000FC012491CA018F53994FFC0194914355EF
:1020F000594FFA013491332309F440C0222351F19E
:10210000233071F0243028F42130A1F0223011F571
:1021100014C02630B1F02730C1F02430D9F404C007
:10212000809180008F7703C0809180008F7D8093A5
:10213000800010C084B58F7702C084B58F7D84BDC8
:1021400009C08091B0008F7703C08091B0008F7D6F
:102150008093B000E32FF0E0EE0FFF1FE756F94F3A
:10216000A591B4912FB7F894662321F48C919095A2
:10217000892302C08C91892B8C932FBF0895682FDF
:1021800070E0CB018B52994FFC012491CB018F530E
:10219000994FFC0144916355794FFB019491992328
:1021A00019F420E030E03CC0222351F1233071F0DB
:1021B000243028F42130A1F0223011F514C026304B
:1021C000B1F02730C1F02430D9F404C080918000F0
:1021D0008F7703C0809180008F7D8093800010C036
:1021E00084B58F7702C084B58F7D84BD09C080918E
:1021F000B0008F7703C08091B0008F7D8093B000D6
:10220000892F90E0880F991F8D55994FFC01A5915A
:10221000B4918C9120E030E0842311F021E030E093
:10222000C9010895DC015C968C915C97FD01E80F73
:10223000F11DE35AFF4F20815C968C915C9790E0F2
:1022400001968F7390705C968C935C975696ED9187
:10225000FC91579720835096ED91FC915197808186
:10226000806480835B969C915B975C968C915C9775
:10227000981739F45296ED91FC91539780818F7D98
:1022800080830895DF92EF92FF920F931F93CF9375
:10229000DF93EC017A018B01D22EE889F98982E083
:1022A0008083403081EE580780E0680780E078073F
:1022B000A1F060E079E08DE390E0A80197010E9431
:1022C0001515215030404040504056954795379560
:1022D000279580E12030380798F0E889F989108245
:1022E00060E874E88EE190E0A80197010E9415155E
:1022F000215030404040504056954795379527959E
:10230000EC85FD853083EE85FF852083188EEC8972
:10231000FD89D082EA89FB89808180618083EA8996
:10232000FB89808188608083EA89FB89808180685D
:102330008083EA89FB8980818F7D8083DF91CF91C3
:102340001F910F91FF90EF90DF900895FC01218D78
:10235000828D30E0205C3F4F281B31092F73307095
:10236000C9010895FC01918D828D981719F42FEF02
:102370003FEF06C0828DE80FF11D858D282F30E0DC
:10238000C9010895DC0159969C9159975A968C91F0
:102390005A97981719F42FEF3FEF10C05A968C9167
:1023A0005A97FD01E80FF11D958D5A968C915A9719
:1023B0008F5F8F735A968C93292F30E0C90108954F
:1023C000CF93DF93EC01888D882361F419C08C9141
:1023D00085FF0AC0E889F989808185FF05C0CE01A3
:1023E0000E941211AA89BB898C9185FD05C0E889DC
:1023F000F989808186FD04C00FB607FEE8CFF4CFCF
:10240000DF91CF9108950F931F93CF93DF93EC014A
:10241000062F9B8D8C8D981791F5E889F98980811D
:1024200085FF2DC0EE89FF896083E889F989808165
:10243000806480831DC00FB607FC08C0E889F98955
:10244000808185FF03C0CE010E9412118C8D181768
:1024500091F38B8DFE01E80FF11DE35AFF4F0083CE
:102460001B8FEA89FB8980818062808381E0888F6D
:1024700081E090E0DF91CF911F910F9108951B8D26
:102480001F5F1F73E3CF8BEC92E1892B51F082EB3E
:1024900093E0892B31F00E94CB12882311F00E9427
:1024A000B20308951F920F920FB60F9211242F932B
:1024B0008F939F93EF93FF93E0917603F0917703CF
:1024C000808182FD16C0E0917C03F0917D03208124
:1024D00090917F039F5F9F7380918003981771F0A5
:1024E000E0917F03F0E0EA59FC4F258F90937F0342
:1024F00005C0E0917C03F0917D03E081FF91EF91B5
:102500009F918F912F910F900FBE0F901F90189554
:10251000109269031092680388EE93E0A0E0B0E0A7
:1025200080936A0390936B03A0936C03B0936D0345
:102530008FE991E0909367038093660385EC90E0C8
:10254000909373038093720384EC90E090937503EF
:102550008093740380EC90E09093770380937603EC
:1025600081EC90E0909379038093780382EC90E083
:1025700090937B0380937A0386EC90E090937D03A5
:1025800080937C0310927F0310928003109281034A
:1025900010928203089586E693E00E94A61120E03F
:1025A000892B09F021E0822F08951F920F920FB618
:1025B0000F9211242F933F934F935F936F937F93C9
:1025C0008F939F93AF93BF93EF93FF9386E693E030
:1025D0000E941211FF91EF91BF91AF919F918F9146
:1025E0007F916F915F914F913F912F910F900FBE0F
:1025F0000F901F901895CF93DF930E94890F0E9430
:102600005706C3E4D2E10E9423062097E1F30E941B
:102610004312F9CFCF92DF92EF92FF920F931F9365
:10262000CF93DF937C016B018A01C0E0D0E00FC043
:10263000D6016D916D01D701ED91FC910190F08172
:10264000E02DC7010995C80FD91F01501040011591
:10265000110571F7CE01DF91CF911F910F91FF907E
:10266000EF90DF90CF900895EF92FF920F931F931A
:10267000CF93DF937C018B01C0E0D0E0F8010F5FC6
:102680001F4F6491662359F0D701ED91FC910190A1
:10269000F081E02DC7010995C80FD91FEFCFCE01FA
:1026A000DF91CF911F910F91FF90EF900895DC0182
:1026B000ED91FC910190F081E02D09950895EF9244
:1026C000FF920F931F938C01DC01ED91FC9101901F
:1026D000F081E02D6DE009957C01D801ED91FC9130
:1026E0000190F081E02DC8016AE009959C012E0D52
:1026F0003F1DC9011F910F91FF90EF900895EF9238
:10270000FF920F931F937C010E9434138C01C70129
:102710000E945F139C01200F311FC9011F910F916F
:10272000FF90EF900895CF93DF93EC016115710551
:1027300019F420E030E00FC0DB010D900020E9F734
:102740001197A61BB70BE881F9810280F381E02D78
:10275000AD0109959C01C901DF91CF9108954F9278
:102760005F927F928F929F92AF92BF92CF92DF92B1
:10277000EF92FF920F931F93DF93CF93CDB7DEB706
:10278000A1970FB6F894DEBF0FBECDBF2C01742EFB
:10279000CB01223008F42AE019A231E2C32ED12C59
:1027A000CC0EDD1E822E9924AA24BB24672D752F02
:1027B000A50194010E94151579018A01C801B7018C
:1027C000A50194010E94F614472D461B0894C108E8
:1027D000D1084A3014F4405D01C0495CF6014083E1
:1027E000E114F1040105110521F07E2C5F2DC801D3
:1027F000DDCFC201B6010E949313A1960FB6F894E3
:10280000DEBF0FBECDBFCF91DF911F910F91FF9023
:10281000EF90DF90CF90BF90AF909F908F907F9080
:102820005F904F900895DC012115310541F4ED9141
:10283000FC910190F081E02D642F099508950E948C
:10284000AF130895EF92FF920F931F939A017B01AC
:1028500000E010E0B801A7010E9413141F910F912E
:10286000FF90EF900895CF92DF92EF92FF920F9337
:102870001F936C017B019A0100E010E0B801A701F1
:102880000E9413148C01C6010E945F13080F191FC8
:10289000C8011F910F91FF90EF90DF90CF900895A6
:1028A000EF92FF920F931F939A01E62EFF2400E010
:1028B00010E0B801A7010E9413141F910F91FF901F
:1028C000EF900895CF92DF92EF92FF920F931F93B4
:1028D0006C01E62E9A01FF2400E010E0B801A70188
:1028E0000E9413148C01C6010E945F13080F191F68
:1028F000C8011F910F91FF90EF90DF90CF90089546
:10290000CF92DF92EF92FF920F931F93CF93DF93BB
:10291000EC016A017B012115310541F4E881F9815F
:102920000190F081E02D642F09951FC02A303105F8
:10293000D1F477FF17C0E881F9810190F081E02D93
:102940006DE209958C0144275527BA014C195D09A0
:102950006E097F09CE012AE00E94AF139801280F6B
:10296000391F04C02AE00E94AF139C01C901DF9106
:10297000CF911F910F91FF90EF90DF90CF9008952E
:10298000CF92DF92EF92FF920F931F936C017B0126
:102990009A010027F7FC0095102FB801A7010E94AB
:1029A00080148C01C6010E945F13080F191FC80113
:1029B0001F910F91FF90EF90DF90CF9008950E94AC
:1029C00093130895EF92FF920F931F937C010E943F
:1029D00093138C01C7010E945F13080F191FC801D0
:1029E0001F910F91FF90EF9008950895629FD0017D
:1029F000739FF001829FE00DF11D649FE00DF11DBA
:102A0000929FF00D839FF00D749FF00D659FF00D68
:102A10009927729FB00DE11DF91F639FB00DE11D55
:102A2000F91FBD01CF0111240895A1E21A2EAA1B9E
:102A3000BB1BFD010DC0AA1FBB1FEE1FFF1FA2176E
:102A4000B307E407F50720F0A21BB30BE40BF50B6B
:102A5000661F771F881F991F1A9469F760957095F4
:102A6000809590959B01AC01BD01CF010895EE0FBB
:0E2A7000FF1F0590F491E02D0994F894FFCF1C
:102A7E0053657269616C20696E707574207472751D
:102A8E006E63617465640048656C6C6F20576F727D
:102A9E006C642C20776F726B73004552524F52202C
:102AAE00003A20000A00433A5C55736572735C6D00
:102ABE006F6D6A5C446F63756D656E74735C4172A5
:102ACE006475696E6F5C6C69627261726965735C64
:102ADE00424C455C6163695F71756575652E637007
:102AEE007000203A004300204500010400018000E0
:102AFE0001800001800001800001800001080001BA
:102B0E000200010200010800018000000000000325
:0C2B1E00120A13A611C211B211E011003E
:00000001FF
